:020000040800F2
:10000000B00E0020393B00088D0200088F02000866
:1000100093020008970200089B02000800000000FD
:100020000000000000000000000000009F02000827
:10003000A102000800000000A3020008A5020008B9
:10004000533B0008533B0008533B0008533B000858
:10005000533B0008533B0008533B0008533B000848
:10006000533B0008533B0008533B0008533B000838
:10007000533B0008533B0008533B0008533B000828
:10008000533B0008533B0008533B0008533B000818
:10009000533B0008533B0008533B0008533B000808
:1000A000533B0008533B0008533B0008533B0008F8
:1000B000533B0008533B0008533B0008533B0008E8
:1000C000533B0008533B0008533B0008533B0008D8
:1000D000533B0008573A0008533B0008533B0008C5
:1000E000533B0008533B0008533B000800F002F864
:1000F00000F068F80AA090E8000C82448344AAF15A
:100100000107DA4501D100F05DF8AFF2090EBAE857
:100110000F0013F0010F18BFFB1A43F0010318473B
:10012000307600005076000010F8013B0A4413F0CE
:10013000030408BF10F8014B1D1108BF10F8015B44
:10014000641E05D010F8016B641E01F8016BF9D133
:10015000002D15D010F8014B03F00C030C2BA1EB74
:1001600004040ABF10F8013BA4EB8314A4EB03249E
:1001700005F1010314F8016B5B1E01F8016BF9D561
:10018000914238BF10F8013BD1D3704700230024BF
:1001900000250026103A28BF78C1FBD8520728BF97
:1001A00030C148BF0B607047642905F02F80732968
:1001B00005F01D81002070471FB505F078F81FBDC0
:1001C00010B510BD05F036F91146FFF7F5FF00F048
:1001D00023F805F054F903B4FFF7F2FF03BC03F072
:1001E000DFFB00000B49D1F800C04A685CF8043B13
:1001F0001068184442F8040B8C4528BFA1F1DC0CB0
:100200008A4228BFA1F1DC02C1F800C04A6020F098
:10021000004070474808002010B5002400F0B3F8F3
:1002200003F054FB00F046FE322003F08CFB4FF449
:10023000E13003F0C4FB01F02EF8012001F031F8A9
:100240000A2003F080FB01F049F8002000F060FF75
:1002500000BF0FE004F12C01CAB204EB8401C90015
:1002600001F137004FF6FF734FF48C7100F0B3FCCF
:10027000601C84B2032CEDDD022002F0D2FC0020D1
:1002800000F046FF02F088F8002010BD704700BF64
:10029000FEE700BFFEE700BFFEE700BFFEE77047D6
:1002A00070477047704700000CB500200190009027
:1002B0006C48006840F480306A49086000BF6948B3
:1002C000006800F4003000900198401C01900098F4
:1002D00018B90198B0F5A06FF1D16248006800F438
:1002E000003010B10120009001E000200090009843
:1002F000012843D15C48006840F010005A4908606A
:100300000846006820F0030008600846006840F0D6
:1003100002000860534840685249486008464068F7
:1003200048600846406840F480604860084640687D
:1003300020F47C1048600846406840F4E8104860AB
:100340000846006840F08070086000BF45480068BB
:1003500000F000700028F9D04248406820F0030007
:10036000404948600846406840F00200486000BFCD
:100370003C48406800F00C000828F9D10CBD10B5CD
:10038000FFF792FF10BD10B53648006840F001003D
:10039000344908600846406834490840314948609B
:1003A00008460068324908402E490860084600683F
:1003B00020F4802008600846406820F4FE00486071
:1003C0004FF41F008860FFF7DAFF4FF00060294903
:1003D000086010BD10B5002100200022214B5B6891
:1003E00003F00C0121B1042906D0082928D107E027
:1003F000214B224C236027E01F4B204C236023E03D
:10040000184B5B6803F47010164B5B6803F4803282
:10041000022303EB904022B9194B4343174C23604E
:100420000DE0104B5B6803F4003323B1144B4343DE
:10043000124C236003E0104B4343104C236003E055
:100440000D4B0E4C236000BF00BF064B5B68C3F32F
:1004500003130C4CE15C094B1B68CB40074C236039
:1004600010BD000000100240002002400000FFF814
:10047000FFFFF6FE08ED00E000127A000000002009
:1004800000093D000400002070B505460E461446E4
:100490003146284600F05EFE204600F082FC70BD2A
:1004A0002DE9F05F06460F4614461D46A01B401C72
:1004B0001FFA80FAE81B401C1FFA80FB681E83B2FB
:1004C000601E82B23946304600F0FAFD4FF0000857
:1004D0000FE04FF0000906E00A9800F062FC09F115
:1004E00001001FFA80F9D145F6DB08F101001FFA7F
:1004F00080F8D845EDDBFE484088401E83B2FC48BA
:100500000088401E82B20021084600F0D9FDBDE8F7
:10051000F09F2DE9FF4F85B081468A460020049068
:1005200003900798A0EB09050898A0EB0A06CDF800
:100530000890CDF804A0002D01DD012705E00DB9DC
:10054000002702E04FF0FF376D42002E02DD4FF032
:10055000010806E016B94FF0000802E04FF0FF383E
:100560007642B54201DD2C4600E034464FF0000BE8
:1005700021E0019A91B2029A90B200F05CFC0498DA
:10058000284404900398304403900498A04205DD69
:100590000498001B04900298384402900398A042EB
:1005A00005DD0398001B03900198404401900BF176
:1005B00001001FFA80FB601C8345DADD09B0BDE84D
:1005C000F08F2DE9FF4F85B081468A4600200390C9
:1005D00083460798A0EB09050898A0EB0A06CDF81A
:1005E0000890CDF804A0002D01DD012705E00DB92C
:1005F000002702E04FF0FF376D42002E02DD4FF082
:10060000010806E016B94FF0000802E04FF0FF388D
:100610007642B54201DD2C4600E0344600200490CD
:100620001EE0019A91B2029A90B2129AFFF72CFF43
:10063000039828440390B3440398A04205DD03982F
:10064000001B0390029838440290A34504DDABEBF5
:10065000040B0198404401900498401C80B204901F
:10066000611C04988842DCDD09B0BDE8F08F2DE9FB
:10067000F04104460D4616461F462B463246294693
:100680002046FFF746FF3B46224629462046FFF715
:1006900040FF3B46324639462046FFF73AFF3B468D
:1006A000324629463046FFF734FFBDE8F081F8B501
:1006B00004460D4616461F468E4800883B46324685
:1006C000294600902046FFF7EBFEF8BD2DE9F041EA
:1006D00004460D4616461F46DDF81880EA1991B209
:1006E000A21990B24246FFF7CFFEEA1991B2A21BBF
:1006F00090B24246FFF7C8FEEA1B91B2A21990B22F
:100700004246FFF7C1FEEA1B91B2A21B90B24246DD
:10071000FFF7BAFEAA1991B2E21990B24246FFF76A
:10072000B3FEAA1991B2E21B90B24246FFF7ACFEAB
:10073000AA1B91B2E21990B24246FFF7A5FEAA1B8E
:1007400091B2E21B90B24246FFF79EFEBDE8F081F7
:100750002DE9FF4F81B0824617469846DDF838B044
:10076000002445464FEA4800C0F10306BBF1000FE4
:100770001FD01BE0A14608E04B462246009750469A
:100780000299FFF7A3FF09F10109A945F4DD002E45
:1007900004DA042000FB0460861D06E0601B0421CF
:1007A00001FB006000F10A066D1E641CAC42E1DD35
:1007B00018E015E02B462246009750460299FFF7B5
:1007C00085FF002E04DA042000FB0460861D06E08D
:1007D000601B042101FB006000F10A066D1E641C11
:1007E000AC42E7DD05B0BDE8F08F2DE9FF4F83B0E7
:1007F00081468A469346DDE910643E4800880290AF
:10080000A6F12000C6B204EBD47009EB6000401ED4
:1008100082B20AEB0400401E83B25146484601945E
:1008200000F04EFC129860BB002527E00C2C07D18D
:1008300006EB4600304901EB800010F8058004E02B
:100840002E4800EB061010F8058000270FE008F096
:10085000010020B10BF0FF0000F098FA03E00699C8
:10086000C8B200F093FA4FEA6808781CC7B204EBEC
:10087000D471B7EB610FEADB681CC5B2A542D5DBCA
:100880002DE0002529E00C2C07D106EB46001A4983
:1008900001EB800010F8058004E0184800EB06101A
:1008A00010F80580002711E01248A0F800B008F009
:1008B000010038B10AEB050291B209EB070290B2D0
:1008C00000F0B9FA4FEA6808781CC7B204EBD4719B
:1008D000B7EB610FE8DB681CC5B2A542D3DB054965
:1008E0000298088002484088401E83B2004807E012
:1008F000A006002014060020C66B00083A7000080D
:100900000088401E82B20021084600F0D9FB07B0E3
:10091000BDE8F08F10B50246012000E050430B1EE9
:10092000A1F10104E1B2F9D110BD2DE9FF4F83B06F
:10093000074691461E46109C4FF0000A002543E0F2
:10094000701B401EC1B20A20FFF7E4FFB9FBF0F0B4
:100950000A21B0FBF1F201FB1208BAF1000F1BD122
:10096000701EA84218DDB8F1000F13D1012020211C
:10097000A346CDE90014029004EBDB71491001FBA2
:10098000057188B2AD490B88AD490A880499FFF713
:100990002CFF17E04FF0010A012108F13000C0B22E
:1009A000A346CDE90141009004EBDB71491001FB46
:1009B000057188B2A1490B88A1490A880499FFF7FB
:1009C00014FF00BF681CC5B2B542B9DB07B0BDE873
:1009D000F08F2DE9FE4F06460F4691469A46DDE917
:1009E0000D480C9DB34638E004EBD471954A12884B
:1009F000A2EB6101B14204DB92494988091BB9426B
:100A000001DABDE8FE8F28780D2804D1381987B2A5
:100A10005E466D1C20E00C2C01D0102C0FD12878E4
:100A200053464A4639468DE811013046FFF7DDFE50
:100A3000204604EBD07106EB61018EB20CE0102170
:100A4000287853464A468DE8030139463046FFF779
:100A5000CCFE06F1080086B26D1C28780028C3D1B0
:100A600000BFCEE72DE9F04303469088B2F800C0FE
:100A7000A0EB0C00B2F80AC0B2F80280ACEB080C94
:100A800000FB0CF0B2F806C0ACEB080CB2F8088022
:100A9000B2F80090A8EB09080CFB18049088B2F893
:100AA00000C0A0EB0C00B2F802C0A1EB0C0C00FBE4
:100AB0000CF0B2F806C0B2F80280ACEB080CB2F849
:100AC0000080A3EB08080CFB18051088B2F808C0DA
:100AD000A0EB0C00B2F80AC0A1EB0C0C00FB0CF070
:100AE000B2F802C0B2F80A80ACEB080CB2F8088089
:100AF000A3EB08080CFB18061089B2F804C0A0EBA1
:100B00000C00B2F80AC0A1EB0C0C00FB0CF0B2F820
:100B10000AC0B2F80680ACEB080CB2F80880A3EB70
:100B200008080CFB180704FB05F000280ADB04FB8F
:100B300006F0002806DB04FB07F0002802DB01209A
:100B4000BDE8F0830020FBE72DE9F0470446B4F848
:100B50000090A088484501DDB4F8049020894845FC
:100B600001DDB4F808902688A088B04200DAA68893
:100B70002089B04200DA26896588E088A84200DD35
:100B8000E5886089A84200DD65896788E088B84209
:100B900000DAE7886089B84200DA6789B04616E073
:100BA000BA460EE0224651464046FFF75BFF20B1B1
:100BB000A28951464046FFF767FC0AF101001FFA7F
:100BC00080FAAA45EEDD08F101001FFA80F8C84559
:100BD000E6DDBDE8F0872DE9F04782460D46164672
:100BE0001F46194800EB461905F10F030AF10F02E1
:100BF0002946504600F0F4F84FF0000819E00024B0
:100C00000FE099F800000121A140084018B13846D2
:100C100000F0C7F803E00948008800F0C2F8601C43
:100C2000C4B2082CEDDB09F1010908F1010000F064
:100C3000FF08B8F1200FE2DBBDE8F08716060020C0
:100C400014060020A0060020140000200021082126
:100C500017E000F0800222B14FF40042FE4B1A6010
:100C600004E04FF40042FC4B1B1D1A604FF400528D
:100C7000F94B1B1D1A601B1F1A604206100E4A1EFC
:100C8000D1B20029E5DC7047024600BF108900F0B0
:100C900002000028FAD0918100BF108900F0010005
:100CA0000028FAD09089C0B2704702884FF6C77307
:100CB0001A400280012902D10288028003E00288E2
:100CC00042F020020280028842F040020280704717
:100CD00000B587B00121092003F06AFA4FF42040E3
:100CE000ADF8040003208DF8060018208DF80700E9
:100CF00001A9D948103802F09FFF4FF48040ADF8A9
:100D0000040003208DF8060010208DF8070001A9CB
:100D1000D148103802F090FF4FF48041CE4810388F
:100D200003F039F80121880303F04FFA0020ADF8F1
:100D300008004FF48270ADF80A000020ADF80C00F6
:100D4000ADF80E00ADF810004FF40070ADF81200D1
:100D50000020ADF81400ADF816000720ADF818001B
:100D600002A9BE4803F048FF0121BC4803F0E9FF97
:100D700007B000BD00B503464FF48040B649091DD9
:100D800008601946B548FFF77FFF00BD00B5034670
:100D90004FF48040B04908601946B048FFF774FF2F
:100DA00000BD00B503464FF48040AB4908601912FE
:100DB000AA48FFF769FFD9B2A848FFF765FF00BD51
:100DC00030B504460D46E0B2FFF7D4FF2846FFF7E2
:100DD000E8FF30BD00B5A249087AFFF7CBFF00BDA0
:100DE000F0B504460D4616461F462A20FFF7C2FFFF
:100DF000C4F30720FFF7CAFFE0B2FFF7C7FFC6F34F
:100E00000720FFF7C3FFF0B2FFF7C0FF2B20FFF76B
:100E1000B1FFC5F30720FFF7B9FFE8B2FFF7B6FF50
:100E2000C7F30720FFF7B2FFF8B2FFF7AFFF2C20A0
:100E3000FFF7A0FFF0BD30B504460D462B46224615
:100E400029462046FFF7CCFF86480088FFF7A9FF18
:100E500030BD08B50121082003F0AAF94FF20200C5
:100E6000ADF8000003208DF8020010208DF803007B
:100E700069467948103802F0DFFE08BD10B514202D
:100E800002F061FD142002F05EFD10BD00B52C20C3
:100E90007349088100208871F02008804FF4A07009
:100EA00048802A2048812B208881C8213620FFF7DE
:100EB00087FF00BD10B5FFF70BFFCF20FFF75AFFEC
:100EC0000020FFF763FFD920FFF760FF3020FFF716
:100ED0005DFFED20FFF74EFF6420FFF757FF032073
:100EE000FFF754FF1220FFF751FF8120FFF74EFF5D
:100EF000E820FFF73FFF8520FFF748FF1020FFF7AE
:100F000045FF7820FFF742FFCB20FFF733FF392062
:100F1000FFF73CFF2C20FFF739FF0020FFF736FFDB
:100F20003420FFF733FF0220FFF730FFF720FFF7F1
:100F300021FF2020FFF72AFFEA20FFF71BFF0020F8
:100F4000FFF724FF0020FFF721FFC020FFF712FF6B
:100F50002120FFF71BFFC120FFF70CFF1220FFF736
:100F600015FFC520FFF706FF3220FFF70FFF3C20DB
:100F7000FFF70CFFC720FFF7FDFEC120FFF706FFBC
:100F80003620FFF7F7FE0820FFF700FF3A20FFF7B3
:100F9000F1FE5520FFF7FAFEB120FFF7EBFE00202F
:100FA000FFF7F4FE1820FFF7F1FEB620FFF7E2FE90
:100FB0000A20FFF7EBFEA220FFF7E8FEF220FFF782
:100FC000D9FE0020FFF7E2FE2620FFF7D3FE012026
:100FD000FFF7DCFEE020FFF7CDFE0F20FFF7D6FE87
:100FE0002020FFF7D3FE1E20FFF7D0FE0920FFF7D9
:100FF000CDFE1220FFF7CAFE0B20FFF7C7FE5020E0
:10100000FFF7C4FEBA20FFF7C1FE4420FFF7BEFE83
:101010000920FFF7BBFE1420FFF7B8FE0520FFF7FD
:10102000B5FE2320FFF7B2FE2120FFF7AFFE002020
:10103000FFF7ACFEE120FFF79DFE0020FFF7A6FEC4
:101040001920FFF7A3FE1920FFF7A0FE0020FFF7ED
:101050009DFE122008E00000100C01400038004006
:10106000A006002014060020FFF790FE0720FFF7DF
:101070008DFE2D20FFF78AFE2820FFF787FE3F20F8
:10108000FFF784FE0220FFF781FE0A20FFF77EFEB5
:101090000820FFF77BFE2520FFF778FE2D20FFF7C5
:1010A00075FE0F20FFF772FE1120FFF763FE782018
:1010B00002F049FC2920FFF75DFEFFF7E7FE10BDB7
:1010C000F0B504460D4616461F462749887AFFF7B5
:1010D00051FE2012FFF75AFEE0B2FFF757FE301222
:1010E000FFF754FEF0B2FFF751FE1F49087BFFF7F0
:1010F00041FE2812FFF74AFEE8B2FFF747FE38121A
:10110000FFF744FEF8B2FFF741FEFFF763FEF0BDC4
:1011100070B5064614484088401E83B212480088C5
:10112000401E82B200210846FFF7CAFF00240CE0EF
:10113000002504E03046FFF734FE681C85B20A48FB
:101140004088A842F6DC601C84B207480088A042B0
:10115000EEDC70BD30B504460D462B4622462946CE
:101160002046FFF7ADFF30BDA006002000B587B0D8
:1011700001214FF4017003F01BF80121084603F030
:1011800017F84FF4004002F077FF3F20ADF804005D
:1011900000208DF8070001A94C4802F04DFD4C4895
:1011A00003F0DCFA0020029001208DF80C008DF88D
:1011B0000D004FF4602004900020059006208DF86B
:1011C000180002A9424803F0F0FA07230122002187
:1011D0003F4803F082FB0723022201213C4803F031
:1011E0007CFB072303220221394803F076FB072307
:1011F00004220321364803F070FB07230522042153
:10120000334803F06AFB072306220521304803F028
:1012100064FB01212E4803F0FFFA01212C4803F062
:10122000F0FA2B4803F00FFB00BF294803F010FB36
:101230000028FAD1264803F015FB00BF244803F02C
:1012400016FB0028FAD107B000BD00B58BB0012114
:10125000084602F0A0FF1F4803F02EFE1C484C3049
:1012600000901D480190002002900620039000206D
:101270000490802005904000069080000790202078
:1012800008900002099000200A906946114803F076
:10129000B5FE0BB000BD10B5FFF768FFFFF7D5FF37
:1012A00010BD10B5044644B10121094803F0E9FA24
:1012B0000121084803F0CDFE07E00021044803F0B7
:1012C000E0FA0021034803F0C4FE10BD000801400D
:1012D0000024014008000240AE06002008B50121AC
:1012E000082002F065FF0121A74802F076FD41F6D3
:1012F000FF70ADF8000003208DF8020048208DF843
:1013000003006946A14802F097FC08BD10B59F484C
:1013100002F02EFD9E4908800846008840F4604097
:10132000C0439C4908809C4800789C4908709948B3
:101330000078C0F34010984908700846007820B142
:101340009648007808B9012000E000209349087011
:1013500093480078934908708E480078C0F3C01015
:101360008F4908700846007820B18E48007808B987
:10137000012000E000208B4908708B4800788B49E1
:10138000087084480078C0F38010874908700846C8
:10139000007820B18548007808B9012000E00020DD
:1013A000824908708248007882490870794800783C
:1013B000C0F300107E4908700846007820B17D48CF
:1013C000007808B9012000E000207A4908707A48C6
:1013D00000787A4908706F480078C0F3C0007649F9
:1013E00008700846007820B17448007808B90120D8
:1013F00000E0002071490870714800787149087058
:1014000064480088C0F300306D49087008460078D1
:1014100020B16C48007808B9012000E0002069493B
:10142000087069480078694908705A480088C0F314
:101430008020654908700846007820B1634800782C
:1014400008B9012000E00020604908706048007879
:10145000604908705E4800785F4908704D48008810
:10146000C0F3C0205A4908700846007820B1594896
:10147000007808B9012000E000205649087054485F
:10148000007820B95448007808B1012000E000201D
:101490005149087051480078514908704F48007808
:1014A000504908703B480088C0F340204B49087001
:1014B0000846007820B14A48007808B9012000E0C9
:1014C0000020474908704548007820B94548007811
:1014D00008B1012000E0002042490870424800782D
:1014E000424908702B480088C0F300203E4908702C
:1014F0000846007820B13D48007808B9012000E096
:1015000000203A4908703A4800783A490870214862
:101510000078C0F34000364908700846007820B1D2
:101520003448007808B9012000E0002031490870F3
:10153000314800783149087016480078C0F38000BF
:101540002D4908700846007820B12C48007808B969
:10155000012000E000202949087029480078294925
:1015600008700C48007800F0010025490870084612
:10157000007820B12348007808B9012000E000205D
:101580002049087010BD000000023000000C01402E
:101590001A0600201C0600201E060020230600203C
:1015A0001F0600202406002020060020250600201B
:1015B0002106002026060020220600202706002003
:1015C000280600202D060020290600202E060020D7
:1015D0002A0600202F060020320600202B060020BD
:1015E00030060020330600202C06002031060020A3
:1015F000340600203706002035060020380600207B
:1016000036060020390600202DE9F047FE48007814
:10161000E0B9FE49088805F009F98146FC4905F062
:1016200019F98046FB4904F0EBFF074605F0C6F8C0
:1016300086B2304605F0FAF80546002104F07EFF38
:10164000044605F0BBF8F4490880B6E0EE4800789F
:1016500001281CD1ED49088805F0E8F88146EF49DA
:1016600005F0F8F88046EB4904F0CAFF074605F09C
:10167000A5F886B2304605F0D9F80546E84904F0E9
:101680005DFF044605F09AF8E349088095E0DE48DE
:1016900000780228D9D1DD488088E2490988401ABB
:1016A000E1490860D948C088E0490988401AE04902
:1016B0000860DD480068642818DDDA490988C1F54A
:1016C000805005F09BF80646D748006805F096F86C
:1016D0000746CF4905F0BEF80546314604F090FFB5
:1016E000044605F04FF8D34908601EE0CE48006874
:1016F00010F1640F16DACB48008805F097F806461B
:10170000C948006805F07AF80746C14905F0A2F813
:101710000546314604F074FF044605F033F8C54928
:10172000086002E00020C3490860C14800686428DE
:1017300019DDBE490988C1F5805005F05FF80646FD
:10174000BB480068404205F059F80746B04905F02B
:1017500081F80546314604F053FF044605F012F8BF
:10176000B54908601FE0B248006810F1640F17DA4D
:10177000AE48008805F05AF80646AD480068404279
:1017800005F03CF80746A24905F064F805463146E5
:1017900004F036FF044604F0F5FFA749086002E0B4
:1017A0000020A5490860A44800684042A24908609A
:1017B000A048006840429F4908609449488805F065
:1017C00035F881469D4905F045F88046914904F079
:1017D00017FF074604F0F2FF86B2304605F026F800
:1017E00005464FF07E5104F0A9FE044604F0E6FFE2
:1017F000934908808548008992490988401A92498E
:1018000008608248408991490988401A90490860D7
:101810008D480068642818DD8A490988C1F5805020
:1018200004F0ECFF06468848006804F0E7FF07462E
:10183000884905F00FF80546314604F0E1FE0446FC
:1018400004F0A0FF844908601EE07F48006810F1A2
:10185000640F16DA7B48008804F0E8FF06467A48F1
:10186000006804F0CBFF07467A4904F0F3FF054611
:10187000314604F0C5FE044604F084FF7649086052
:1018800002E000207449086071480068642819DD8E
:101890006E490988C1F5805004F0B0FF06466C48D7
:1018A0000068404204F0AAFF07466A4904F0D2FFEC
:1018B0000546314604F0A4FE044604F063FF674980
:1018C00008601FE06248006810F1640F17DA5F4893
:1018D000008804F0ABFF06465D480068404204F013
:1018E0008DFF07465B4904F0B5FF0546314604F01D
:1018F00087FE044604F046FF5849086002E00020D5
:1019000056490860554800684042544908605248AA
:101910000068404250490860BDE8F0873EB50024A9
:101920000723412219461E20FEF7F3FD082341221A
:1019300019461E20FEF7EDFD0723AF221946D220DF
:10194000FEF7E7FD0823AF221946D220FEF7E1FD9E
:1019500000BF0EE004F11101CAB204EBC40149005A
:1019600001F14E004FF478430021FFF734F9601C79
:10197000C4B2012CEEDD4FF4784314220021722012
:10198000FFF729F94FF47843032200218420FFF761
:1019900022F94FF47843042200219620FFF71BF927
:1019A00000240BE0E11CCAB204EBC401480040F281
:1019B000FF731621FFF70FF9601CC4B2032CF1DD91
:1019C0000120102126A20023CDE90021029040F23F
:1019D000FF7216214B20FEF7FCFF4FF4FC63072239
:1019E00016215A20FFF7F7F84FF4FC63092216215D
:1019F0006C20FFF7F0F840F2FF73032216217E20DF
:101A0000FFF7E9F82EE000003D060020AE060020BA
:101A100000C0794400F07F454206002000001643D4
:101A2000000048425A0600206406002058060020A4
:101A3000600600204C060020480600200000C4423A
:101A4000440600205E0600206C0600205C06002094
:101A5000680600200000C642540600205006002000
:101A60003A00000040F2FF73042216219020FFF795
:101A7000B2F800240AE0E11CCAB204EBC401480039
:101A80001F233021FFF7A7F8601CC4B2012CF2DD40
:101A900000240DE004F10C01CAB204EBC4014900BA
:101AA00001F124001F233021FFF795F8601CC4B218
:101AB000012CEFDD00240EE004F10F01CAB204EBAB
:101AC000C401490001F15A004FF478432821FFF77F
:101AD00082F8601CC4B2012CEEDD01201021AFF2AF
:101AE00080020023CDE9002102904FF478422821A2
:101AF0007E20FEF76EFF40F2FF702E235222194621
:101B000000904C20FEF75DFD40F2FF70462352220C
:101B1000194600904C20FEF754FD1F230E223C2155
:101B20005A20FFF758F81F2310223C216C20FFF7A2
:101B300052F801201021AFF2D8020023CDE9002194
:101B400002901F223C217E20FEF743FF40F2FF70EF
:101B500046234C222E2100901046FEF732FD40F223
:101B6000FF7046234D222E2100901046FEF729FDDE
:101B700000240CE004F11101CAB204EBC4014800D6
:101B80004FF478434E21FFF726F8601CC4B2032CB3
:101B9000F0DD01201021AFF238120023CDE9002141
:101BA00002904FF478424E214B20FEF712FF0120A5
:101BB0001021FEA20023CDE90021029040F2FF7225
:101BC0004E218220FEF705FF6C23412219461E207C
:101BD000FEF79FFC6D23412219461E20FEF799FC5B
:101BE0006C23AF221946D220FEF793FC6D23AF225F
:101BF0001946D220FEF78DFC00240EE004F11501F9
:101C0000CAB204EBC401490001F14E0040F2FF7377
:101C10006421FEF7E0FF601CC4B2012CEEDD40F24F
:101C2000FF73142264217220FEF7D5FF40F2FF7388
:101C3000032264218420FEF7CEFF40F2FF730422CA
:101C400064219620FEF7C7FF00240BE004F1170182
:101C5000CAB204EBC40148001F237821FEF7BBFF82
:101C6000601CC4B2012CF1DD00240CE0E11CCAB2FE
:101C700004EBC401490001F124001F237821FEF781
:101C8000AAFF601CC4B2012CF0DD01201021AFF2CC
:101C900030220023CDE9002102901F2278214B2021
:101CA000FEF797FE4FF4FC631F2278215A20FEF7BF
:101CB00092FF4FF4FC63202278216C20FEF78BFF0B
:101CC0001F23032278217E20FEF785FF1F23042295
:101CD00078219020FEF77FFF00240CE004F117012B
:101CE000CAB204EBC40148004FF478438C21FEF7DC
:101CF00072FF601CC4B2032CF0DD01201021AFF292
:101D0000A0220023CDE9002102904FF478428C21DB
:101D10004B20FEF75EFE00240CE004F11B01CAB26A
:101D200004EBC40148004FF4FC63A021FEF753FF0D
:101D3000601CC4B2012CF0DD00240EE004F1190196
:101D4000CAB204EBC401490001F124004FF4FC6362
:101D5000A021FEF740FF601CC4B2012CEEDD012083
:101D60001021AFF204320023CDE9002102904FF49C
:101D7000FC62A0214B20FEF72CFE00240CE004F1B5
:101D80001B01CAB204EBC401480040F2FF73B42146
:101D9000FEF721FF601CC4B2012CF0DD01201021F0
:101DA000AFF244320023CDE90021029040F2FF72ED
:101DB000B4214B20FEF70DFE40F2FF731D22B4212B
:101DC0002420FEF708FF40F2FF731A22B4213620C8
:101DD000FEF701FFD223412219461E20FEF799FB90
:101DE000D323412219461E20FEF793FBD223AF22B4
:101DF00019461846FEF78DFBD323AF221946D22091
:101E0000FEF787FB00240DE004F12101CAB204EBC8
:101E1000C401490001F14E001F23CA21FEF7DBFE79
:101E2000601CC4B2022CEFDD1F230322CA218420D0
:101E3000FEF7D1FE1F230422CA219620FEF7CBFE17
:101E40004FF4FC632422DE210020FEF7C4FE4FF491
:101E5000FC632622DE211220FEF7BDFE4FF4FC6358
:101E60002322DE212420FEF7B6FE01201021AFF24E
:101E700010420023CDE9002102904FF4FC62DE21E4
:101E80003720FEF7A6FD1F232222DE215A20FEF76F
:101E9000A2FE40F2FF732522F2210020FEF79BFEF6
:101EA00040F2FF732622F2211220FEF794FE40F248
:101EB000FF732322F2212420FEF78DFE0120102142
:101EC000AFF264420023CDE90021029040F2FF729C
:101ED000F2213720FEF77DFD1F232222F2215A2016
:101EE000FEF779FE4FF48873412219461E20FEF753
:101EF00010FB4FF48873412219461E20FEF709FBA0
:101F000000240FE004F12701CAB204EBC401490028
:101F100001F14E004FF4FC634FF48471FEF75BFE59
:101F2000601CC4B2042CEDDD40F21113AF2219463F
:101F3000D220FEF7EEFA40F21113AF221946D2205A
:101F4000FEF7E7FA1A48C0881A49088018488088BE
:101F500019490880164840891849088014480089A2
:101F6000174908803EBD08B516480078401C154941
:101F7000087008460078032190FBF1F201FB120083
:101F800010490870002028238022162100905A2032
:101F9000FEF786FA0B480078F0B94FF4FC6307228D
:101FA00016215A20FEF717FE0EE000006D6D0000AE
:101FB000AE060020580600205A0600205C060020CD
:101FC0005E0600203D0600204FF4FC630922162126
:101FD0006C20FEF700FE22E0FE48007801280CD1BC
:101FE0001F23082216215A20FEF7F5FD1F23092280
:101FF00016216C20FEF7EFFD11E0F648007802286C
:102000000DD142F612330A2216215A20FEF7E3FDC3
:1020100042F612330B2216216C20FEF7DCFD08BDC0
:1020200008B5ED480078401CEB490870087800EBD3
:10203000D0714910A0EB4101E74A117000208A23BA
:102040008022782100905A20FEF72AFAE248007890
:1020500070B94FF4FC631F2278215A20FEF7BBFDB4
:102060004FF4FC63202278216C20FEF7B4FD11E0D0
:10207000D948007801280DD14FF478431E227821E9
:102080005A20FEF7A8FD4FF47843202278216C20D7
:10209000FEF7A1FD08BD10B50446DCB9CF490978AB
:1020A000481C00EBD0714910A0EB4101CB4A1170E4
:1020B0001046007830B91F232222DE215A20FEF775
:1020C0008AFD22E04FF4FC632122DE215A20FEF734
:1020D00082FD1AE0C2490978481C00EBD071491012
:1020E000A0EB4101BE4A11701046007830B91F23A1
:1020F0002222F2215A20FEF76EFD06E04FF4FC6327
:102100002122F2215A20FEF766FD10BD0EB5FFF721
:102110007BFA00205023C822282100908E20FEF751
:10212000BFF9AC48007890B9102003230090AD4867
:10213000028828218E20FEF7F8FB10200323009050
:10214000A84802883C218E20FEF7EFFB79E0A148E9
:102150000078012809D1102003230090A1480288AB
:1021600028218E20FEF7E1FB6BE09A4800780228D8
:1021700067D19D480068002817DB012010219BA231
:102180000023CDE9002102904FF4FC6228218E202B
:10219000FEF71FFC102000909348008882B20323B2
:1021A0002821A020FEF7C1FB17E00120102190A2FA
:1021B0000023CDE9002102904FF4784228218E209F
:1021C000FEF707FC1020009087480088404282B24A
:1021D00003232821A020FEF7A8FB864800680028DA
:1021E00017DB0120102181A20023CDE900210290FC
:1021F0004FF4FC623C218E20FEF7EBFB1020009098
:102200007C48008882B203233C21A020FEF78DFB8E
:1022100017E00120102176A20023CDE900210290D1
:102220004FF478423C218E20FEF7D3FB1020009023
:1022300070480088404282B203233C21A020FEF770
:1022400074FB0020C823AD228C2100905D20FEF796
:1022500027F9102003230090674802888C215D2015
:10226000FEF763FB65480068002817DB012010219A
:102270005EA20023CDE9002102904FF4FC62B4215C
:102280005D20FEF7A6FB102000905C48008882B21B
:102290000323B4216F20FEF748FB17E00120102133
:1022A00053A20023CDE9002102904FF47842B421DB
:1022B0005D20FEF78EFB10200090504800884042C1
:1022C00082B20323B4216F20FEF72FFB4C48006835
:1022D000002817DB0120102144A20023CDE90021B2
:1022E00002904FF4FC62A0215D20FEF772FB1020EB
:1022F00000904348008882B20323A0216F20FEF79C
:1023000014FB17E00120102139A20023CDE90021A0
:1023100002904FF47842A0215D20FEF75AFB102076
:10232000009037480088404282B20323A0216F20EA
:10233000FEF7FBFA0EBD3EB5044600204FF4A27333
:10234000F0224FF48E7100905020FEF7A9F8012082
:10235000102100234FF61F02CDE9004102904FF4F7
:102360008E715020FEF735FB3EBD3EB50446002081
:1023700064238122502100905A20FEF791F8012019
:10238000102100234FF6E072CDE900410290502168
:102390005A20FEF71EFB3EBD88B00524FFF7BEFAAB
:1023A000F4E30524FFF7B2FEA5E1142001F0CBFA17
:1023B000FEF7ACFF1348008830B91348007818B90D
:1023C000124800780028EFD01148007840B3FFF79A
:1023D000CAFD1FE03D0600203E06002070060020DA
:1023E0007106002042060020480600202B00000055
:1023F0002D0000004C06002044060020500600205E
:10240000540600201C06002032060020330600205F
:1024100027060020F3A002F07BFEF5A0FFF78BFF5C
:10242000F648007838B1FFF7FBFDF5A002F070FE2A
:10243000F5A0FFF780FFF748007850B10020FFF7C4
:102440002AFEF5480178F5A002F062FEF5A0FFF73C
:1024500072FFF848007850B10120FFF71CFEF648E3
:102460000178F6A002F054FEF6A0FFF764FFF948E9
:10247000007828B3F848007810BBF8480088632833
:102480001EDDF64800880A2190FBF1F5F34800882C
:10249000642190FBF1F62A463146F1A002F038FEA5
:1024A000EE480088642190FBF1F000FB01F52B461B
:1024B000EDA2EFA103A802F037FE03A8FFF73BFF50
:1024C000ED48007828B3E448007810BBE348008862
:1024D00063281EDDE14800880A2190FBF1F5DF4802
:1024E0000088642190FBF1F62A463146E3A002F011
:1024F0000FFEDA480088642190FBF1F000FB01F543
:102500002B46E0A2DAA103A802F00EFE03A8FFF713
:1025100012FFDF480078002842D0CF480078F8B991
:10252000CE4800880A2190FBF1F5CC480088642150
:1025300090FBF1F62A463146D6A002F0E9FDC748E5
:102540000088642190FBF1F000FB01F52B46D3A23B
:10255000C7A103A802F0E8FD03A8FFF7ECFE1FE007
:10256000BD48007801281BD1BC480088632805DDE0
:10257000BA480188CBA002F0CBFD04E0B74801883F
:10258000CAA002F0C5FDAFF2DC500090B34803884A
:10259000C8A2CAA103A802F0C7FD03A8FFF7CBFE9B
:1025A000C8480078002842D0AB480078F8B9AB485A
:1025B00000880A2190FBF1F5A8480088642190FB6F
:1025C000F1F62A463146C0A002F0A2FDA3480088D9
:1025D000642190FBF1F000FB01F52B46BCA2A4A105
:1025E00003A802F0A1FD03A8FFF7A5FE1FE09A488B
:1025F000007801281BD199480088632805DD974899
:102600000188B5A002F084FD04E094480188B4A0DC
:1026100002F07EFDAFF26C60009090480388B2A299
:10262000A6A103A802F080FD03A8FFF784FEB0482E
:10263000007828B1AFA002F06BFDB1A0FFF77BFEE0
:10264000B2480078E8B1B2480078D0B9B148008803
:10265000092805DDAF480188AFA002F059FD04E06C
:10266000AC480188AEA002F053FDAFA00090A9488D
:102670000388AEA291A103A802F056FD03A8FFF7BC
:102680005AFEAD480078E8B1A1480078D0B9A14819
:102690000088092805DD9F480188A8A002F038FDC0
:1026A00004E09C480188A7A002F032FDA7A000909A
:1026B000984803889DA281A103A802F035FD03A8D4
:1026C000FFF739FEA248007828B1A2A002F020FD51
:1026D000A2A0FFF730FEA548007810B9A448007802
:1026E00048B18B480078012805D19AA002F010FD6E
:1026F000A0A0FFF720FE201EA4F10101CCB27FF4C0
:1027000054AE8348007801283DD1FEF7FFFD9D4877
:102710000078D0B17F480088092805DD7D48018810
:1027200099A002F0F5FC04E07A48018898A002F034
:10273000EFFC99A000907748038898A25FA103A8B6
:1027400002F0F2FC03A8FFF7F6FD97480078D0B13D
:1027500070480088092805DD6E48018893A002F0C2
:10276000D7FC04E06B48018892A002F0D1FC93A052
:1027700000906848038889A250A103A802F0D4FC05
:1027800003A8FFF7D8FD34480078022827D18C48E9
:10279000006818B98B480068002821D001208A49B8
:1027A000087088480068632805DD8648016887A0AE
:1027B00002F0AEFC3EE183480068092805DD81484F
:1027C000016884A002F0A4FC34E17E48006800287F
:1027D00007DD7C48016881A002F09AFC2AE18DE1C6
:1027E0007EE1FFE0413230303042323030300000A4
:1027F00053544F5020414220414C4C0031060020A0
:10280000433230303000000053544F5020432041B9
:102810004C4C000037060020700600204430303059
:1028200025640000546F67676C6556616C7665318E
:1028300000000000380600207106002044313030CE
:1028400025640000546F67676C6556616C7665326D
:1028500000000000250600203D0600204206002062
:1028600042342564256400004C45465420503A000B
:1028700025732564000000002606002042332564ED
:1028800025640000524947485420503A0000000097
:102890002306002041332564256400005550205054
:1028A0003A0000004330256400000000433030252A
:1028B0006400000055503A20000000002573256494
:1028C000257300002406002041342564256400009F
:1028D000444F574E20503A00433125640000000019
:1028E0004331302564000000444F574E3A20000029
:1028F0003906002041323030304332303030000071
:1029000053544F5020414C4C000000002F06002033
:102910003E060020440600204335302564000000B8
:102920004335303025640000204C00004175746F41
:102930004D6F76653A200000300600204335312582
:10294000640000004335313025640000205200004F
:102950002D060020433532303100000053544F50D3
:102960002041524D204155544F00000032060020B6
:102970003306002053544F502041524D204D414EBC
:102980002E0000002A060020433430256400000099
:1029900043343030256400004C0000004D616E75FA
:1029A000616C4D6F76653A002B060020433431256B
:1029B0006400000043343130256400005200000000
:1029C000480600204C0600203F06002042302564C7
:1029D00000000000423030256400000042303030FA
:1029E00025640000FE48006818B9FEA002F090FBC4
:1029F00020E0FB48006810F10A0F07DDF848008866
:102A0000404281B2F9A002F083FB13E0F448006871
:102A100010F1640F07DDF2480088404281B2F5A052
:102A200002F076FB06E0EE480088404281B2F3A057
:102A300002F06EFBF3480068632805DDF148016889
:102A4000F1A002F065FB3BE0EE480068092805DDD7
:102A5000EC480168EEA002F05BFB31E0E948006859
:102A6000002805DDE7480168EBA002F051FB27E0F4
:102A7000E448006818B9EAA002F04AFB20E0E14807
:102A8000006810F10A0F07DDDE480088404281B27D
:102A9000E5A002F03DFB13E0DA48006810F1640F96
:102AA00007DDD8480088404281B2E1A002F030FB47
:102AB00006E0D4480088404281B2DFA002F028FB43
:102AC000C7480068DEA1CDE90010CE48DDA2DEA136
:102AD000036803A802F028FB03A8FFF72CFC0DE015
:102AE000DC480078012809D10020DA490870AFF2EB
:102AF0000C3002F00DFBD8A0FFF71DFCD848006891
:102B000018B9D848006800287CD00120D649087040
:102B1000D3480068092805DDD1480168D3A002F038
:102B2000F7FA29E0CE480068002805DDCC480168A6
:102B3000D0A002F0EDFA1FE0C948006818B9CFA094
:102B400002F0E6FA18E0C648006810F10A0F07DD47
:102B5000C3480088404281B2CAA002F0D9FA0BE013
:102B6000BF48006810F1640F06DDBD480088404290
:102B700081B2C6A002F0CCFABA480068092806DD86
:102B8000B8480168C3A002F0C3FA2AE047E0B5489C
:102B90000068002805DDB3480168C0A002F0B8FA5B
:102BA0001FE0B048006818B9BEA002F0B1FA18E002
:102BB000AC48006810F10A0F07DDAA4800884042BF
:102BC00081B2BAA002F0A4FA0BE0A648006810F1A6
:102BD000640F06DDA3480088404281B2B5A002F030
:102BE00097FA9F480068B5A1CDE900109D48B5A2AD
:102BF00095A1036803A802F097FA03A8FFF79BFBCF
:102C00000DE0FFE798480078012808D10020964998
:102C10000870ADA002F07CFAAEA0FFF78CFBFFF7C6
:102C2000C0BB2DE9F04F91B08346142400201090D2
:102C30000F900E90A949488802F024FBBBF1000FC9
:102C40005ED15AE0FEF762FBA548007800B155E07E
:102C5000FDF7C8FAF02190FBF1F201FB1200401CD5
:102C600087B2FDF7BFFAF02190FBF1F201FB1200F1
:102C7000401C1FFA80F8FDF7B5FA1E2190FBF1F217
:102C800001FB1200401C80B20C900C984044F028CC
:102C900003DDC8F1F00080B20C900C98804501DA99
:102CA000CDF830800C983844F02803DDC7F1F000EF
:102CB00080B20C900C98874200DA0C97FDF792FADC
:102CC0004FF6FF7190FBF1F201FB120080B20D9004
:102CD0000120009041463846DDE90C32FDF738FD11
:102CE000FDF780FA4FF4FA7190FBF1F201FB12004C
:102CF000401C80B20B9000F026FEA3E700BFFCE36F
:102D0000BBF1010F6AD11424EFE0FDF76BFAF0215B
:102D100090FBF1F201FB1200401C85B2FDF762FA54
:102D2000F02190FBF1F201FB1200401C86B2FDF78E
:102D300059FA1E2190FBF1F201FB1200401C1FFA10
:102D400080F906EB0900F02803DDC6F1F0001FFA58
:102D500080F94E4500DAB14605EB0900F02803DDA5
:102D6000C5F1F0001FFA80F94D4500DAA946FDF7DC
:102D700039FA4FF6FF7190FBF1F201FB12001FFAD6
:102D800080FAC4F11400574921F83050C4F11400FE
:102D900001EBC0004680C4F1140001EBC000A0F8B4
:102DA0000490C4F1140001EBC000A0F806A00120BB
:102DB0004B465246314600902846FDF7C9FCFDF7C8
:102DC00011FA4FF4FA7190FBF1F201FB1200401C72
:102DD00087B2384600F0B7FD601E85E024E10000B0
:102DE0004C0600204232303030000000423130309A
:102DF0002564000042313025640000004231256422
:102E0000000000004806002041302564000000005A
:102E1000413030256400000041303030256400002E
:102E20004132303030000000413130302564000044
:102E3000413130256400000041312564000000006C
:102E4000482E3A00562E3A002573256425732564D2
:102E5000000000003F06002053746F7020414200C4
:102E6000500600205406002040060020433730253D
:102E700064000000433730302564000043373230AF
:102E800030000000433731302564000043373125DE
:102E900064000000433630256400000043363030C3
:102EA00025640000433632303000000043363130B4
:102EB00025640000433631256400000020524F5441
:102EC000000000004D4F5600433632303043373259
:102ED0003030000053746F7020430000AE060020B5
:102EE00036060020BA06002084B2002C7FF40DAF15
:102EF00098E0FEF70BFAFE48007800B193E001205D
:102F0000FC4A00909388518810880022FDF720FC2D
:102F100013242CE0C4F11400F64931F83000C4F158
:102F20001301F44A22F83100C4F11400114601EBF8
:102F3000C0004088C4F1130102EBC1014880C4F114
:102F40001400114601EBC0008088C4F1130102EBAC
:102F5000C1018880C4F11400114601EBC000C08893
:102F6000C4F1130102EBC101C880601E84B2002CC1
:102F7000D0D1FDF737F9F02190FBF1F201FB1200FF
:102F8000401C85B2FDF72EF9F02190FBF1F201FB18
:102F90001200401C86B2FDF725F91E2190FBF1F2CC
:102FA00001FB1200401C1FFA80F906EB0900F02813
:102FB00003DDC6F1F0001FFA80F94E4500DAB14694
:102FC00005EB0900F02803DDC5F1F0001FFA80F9D8
:102FD0004D4500DAA946FDF705F94FF6FF7190FB64
:102FE000F1F201FB12001FFA80FAC248A0F89850D3
:102FF000A0F89A60A0F89C90A0F89EA001204B46F3
:103000005246314600902846FDF7A2FBFDF7EAF84C
:10301000C82190FBF1F201FB1200401C87B2384638
:1030200000F091FC65E76AE6BBF1020F74D1C8209D
:1030300000F089FCB0488088B0490880AE48C0885C
:10304000AF490880142407E1AB488088AB49098860
:10305000401AAC490860A848C088A9490988401AA4
:10306000A9490860A7480068642818DDA3490988B1
:10307000C1F5805003F0C2FB0D90A248006803F038
:10308000BDFBA2490C9003F0E5FB80460D9903F0CF
:10309000B7FA074603F076FB9D4908601EE09948A1
:1030A000006810F1640F16DA9448008803F0BEFB44
:1030B0000D909448006803F0A1FB94490C9003F034
:1030C000C9FB80460D9903F09BFA074603F05AFBB3
:1030D0008F49086002E000208D4908608A48006836
:1030E00064281ADD86490988C1F5805003F086FB03
:1030F0000D9085480068404203F080FB83490C90A6
:1031000003F0A8FB80460D9903F07AFA074603F016
:1031100039FB8049086020E0F7E17B48006810F146
:10312000640F17DA7648008803F080FB0D9076482C
:103130000068404203F062FB74490C9003F08AFB84
:1031400080460D9903F05CFA074603F01BFB7149BA
:10315000086002E000206F4908606F4800886C49F1
:103160000988401A6C4908806C48008869490988B8
:1031700008446A49088068480088E1280BDD6648F1
:103180000088B0F57A7F03DD0F206349088002E0F4
:10319000E1206149088061480088E1280BDD5F4833
:1031A0000088B0F57A7F03DD0F205C49088002E0DB
:1031B000E1205A4908805848058858480688FDF794
:1031C00011F80A2190FBF1F201FB1200401C1FFADA
:1031D00080F906EB0900F02803DDC6F1F0001FFAC4
:1031E00080F94E4500DAB14605EB0900F02803DD11
:1031F000C5F1F0001FFA80F94D4500DAA946FCF749
:10320000F1FF4FF6FF7190FBF1F201FB12001FFA84
:1032100080FAC4F11400374921F83050C4F1140089
:1032200001EBC0004680C4F1140001EBC000A0F81F
:103230000490C4F1140001EBC000A0F806A0012026
:103240004B465246314600902846FDF781FA6420ED
:1032500000F079FB601E84B2002C7FF4F5AE52E1E1
:10326000FEF754F82248007800B14DE10120214AD0
:1032700000909388518810880022FDF769FA132482
:103280002CE0C4F114001B4931F83000C4F11301E3
:10329000184A22F83100C4F11400114601EBC000B5
:1032A0004088C4F1130102EBC1014880C4F114004D
:1032B000114601EBC0008088C4F1130102EBC1018B
:1032C0008880C4F11400114601EBC000C088C4F12D
:1032D000130102EBC101C880601E84B2002CD0D162
:1032E0000548808805490988401A0649086017E0A2
:1032F00036060020BA060020AE0600205A0600203E
:103300005806002064060020600600200000A0414E
:103310004C0600204806002072060020740600209B
:10332000FE48C088FE490988401AFE490860FE48E8
:103330000068642818DDFD490988C1F5805003F054
:103340005DFA0D90F848006803F058FAF8490C90BF
:1033500003F080FA80460D9903F052F9074603F016
:1033600011FAF44908601EE0EF48006810F1640F9C
:1033700016DAEE48008803F059FA0D90EA48006822
:1033800003F03CFAEA490C9003F064FA80460D9988
:1033900003F036F9074603F0F5F9E649086002E064
:1033A0000020E4490860DF480068642819DDDC4932
:1033B0000988C1F5805003F021FA0D90D9480068C2
:1033C000404203F01BFADA490C9003F043FA8046BE
:1033D0000D9903F015F9074603F0D4F9D6490860B2
:1033E0001FE0D048006810F1640F17DACC4800885D
:1033F00003F01CFA0D90CB480068404203F0FEF940
:10340000CB490C9003F026FA80460D9903F0F8F8AA
:10341000074603F0B7F9C849086002E00020C64932
:103420000860C6480088C3490988401AC349088013
:10343000C3480088C04909880844C1490880BF487A
:103440000088E1280BDDBD480088B0F57A7F03DDF8
:103450000F20BA49088002E0E120B8490880B84846
:103460000088E1280BDDB6480088B0F57A7F03DDDF
:103470000F20B349088002E0E120B1490880AF483D
:103480000588AF480688FCF7ADFE0A2190FBF1F2F3
:1034900001FB1200401C1FFA80F906EB0900F0281E
:1034A00003DDC6F1F0001FFA80F94E4500DAB1469F
:1034B00005EB0900F02803DDC5F1F0001FFA80F9E3
:1034C0004D4500DAA946FCF78DFE4FF6FF7190FBE3
:1034D000F1F201FB12001FFA80FA9A48A0F8985006
:1034E000A0F89A60A0F89C90A0F89EA001204B46FE
:1034F000524631460090284600E0DCE1FDF728F90D
:10350000642000F020FAABE6D5E1BBF1030FFBD15C
:10351000C82000F018FA1424002010908AE0FCF76C
:1035200061FE282190FBF1F201FB1200143883495F
:103530000988084481490880FCF754FE282190FB43
:10354000F1F201FB120014387D49098808447C49D6
:1035500008807A480088E1280BDD78480088B0F5BB
:103560007A7F03DD0F207549088002E0E12073496E
:10357000088073480088E1280BDD71480088B0F5A9
:103580007A7F03DD0F206E49088002E0E1206C495C
:1035900008806A4805886A480688FCF723FE0A21E5
:1035A00090FBF1F201FB1200401C1FFA80F906EBC0
:1035B0000900F02803DDC6F1F0001FFA80F94E453E
:1035C00000DAB14605EB0900F02803DDC5F1F00093
:1035D0001FFA80F94D4500DAA946FCF703FE4FF6C5
:1035E000FF7190FBF1F201FB12001FFA80FAC4F1A7
:1035F0001400544921F83050C4F1140001EBC0000C
:103600004680C4F1140001EBC000A0F80490C4F19E
:10361000140001EBC000A0F806A001204B46524662
:10362000314600902846FDF793F8642000F08BF9AE
:10363000601E84B2002C7FF472AF3AE1FDF766FEA3
:103640004148007800B135E101203E4A009093885E
:10365000518810880022FDF77BF813242CE0C4F178
:103660001400384931F83000C4F11301354A22F80A
:103670003100C4F11400114601EBC0004088C4F1D0
:10368000130102EBC1014880C4F11400114601EBA3
:10369000C0008088C4F1130102EBC1018880C4F12D
:1036A0001400114601EBC000C088C4F1130102EB05
:1036B000C101C880601E84B2002CD0D11098401C7B
:1036C00080B21090FCF78EFD052190FBF1F201FB1A
:1036D0001200401D1B49B1F89810C1F1780191FB0F
:1036E000F0F7384602F00BFDCDE90801109800EB29
:1036F000D0710D90481002F002FD074602F04AFA20
:103700000022124BCDE9000102F024FDCDE90401B5
:103710000A48008802F00AFD1AE00000AE06002008
:103720005806002060060020640600205A0600208B
:103730000000A0414C060020480600207206002030
:1037400074060020BA06002036060020000034402F
:10375000CDE90201DDE9042302F06CFACDE90601AE
:10376000DDE9082302F066FACDE90A0102F09AFCCD
:1037700052490880FCF736FD052190FBF1F201FB70
:103780001200401D4E49B1F89A10C1F1780191FB29
:10379000F0F7384602F0B3FCCDE90A010321109896
:1037A00090FBF1F7384602F0AAFCCDE9000102F0E7
:1037B000A3F90022434BCDE9020102F0CBFCCDE995
:1037C00006014148008802F0B1FCCDE90401DDE9C1
:1037D000062302F02FFACDE90801DDE90A2302F001
:1037E00029FACDE90C0102F05DFC37490880334825
:1037F0000088E1280BDD31480088B0F57A7F03DDD1
:103800000F202E49088002E0E1202C4908802E4834
:103810000088E1280BDD2C480088B0F57A7F03DDB5
:103820000F202949088002E0E12027490880234829
:10383000058825480688FCF7D5FC0A2190FBF1F2A3
:1038400001FB1200401C1FFA80F906EB0900F0286A
:1038500003DDC6F1F0001FFA80F94E4500DAB146EB
:1038600005EB0900F02803DDC5F1F0001FFA80F92F
:103870004D4500DAA946FCF7B5FC4FF6FF7190FB09
:10388000F1F201FB12001FFA80FA0D48A0F89850DF
:10389000A0F89A60A0F89C90A0F89EA001204B464A
:1038A0005246314600902846FCF752FF642000F053
:1038B0004AF8C3E600BF11B0BDE8F08F72060020E1
:1038C000BA060020000034407406002010B56FF0E6
:1038D000040000F024FF2E4800682E49B0FBF1F0F0
:1038E0002D4908700846007800EB4001C1EBC0107C
:1038F0004FF6FF7101EAC0002849088010BD01465B
:10390000254A12784A434FF0E0235A6100229A6117
:103910001A46126942F001021A6100BF4FF0E0221C
:10392000106900F001021AB100F48032002AF5D0CB
:103930004FF0E022126922F001024FF0E0231A61F9
:1039400000229A6170470146144A12884A434FF098
:10395000E0235A6100229A611A46126942F001027C
:103960001A6100BF4FF0E022106900F001021AB1A5
:1039700000F48032002AF5D04FF0E022126922F0E4
:1039800001024FF0E0231A6100229A6170470000A3
:103990000000002000127A00760600207806002041
:1039A000014600BF704700BF5C4A128802F0400227
:1039B000002AF9D0C2B2594B1B1D1A80704710B5AE
:1039C00086B00446012144F2040000F0F1FB4FF4FC
:1039D0000070ADF8140003208DF8160018208DF843
:1039E000170005A94E4800F027F94FF48060ADF8A4
:1039F000140004208DF8170005A9494800F01CF9AF
:103A000025208DF8000003208DF801008DF80200BC
:103A100001208DF80300684600F037FE0194002075
:103A2000ADF80800ADF80A00ADF80C00ADF81000D4
:103A30000C20ADF80E0001A9384800F060FC01220E
:103A400040F22551354800F0F2FC0121334800F0E6
:103A5000E2FC06B010BD10B540F225512F4800F031
:103A6000CBFD002859D02D4800F046FDC4B2632C90
:103A700001DC612C03DA5A2C07DC412C05DB012028
:103A8000284908702848047014E026480078002867
:103A900010DD302C0BDB392C09DC23482149097857
:103AA000445420480078401C1E49087002E0002061
:103AB0001C4908701B48007805282ED100201949A0
:103AC000087019480078632827D1174840783038A3
:103AD0004FF47A71484314498978303901EBC102B7
:103AE00002EB011100EB81010F48C078303800EB88
:103AF000800001EB40010C48007930380844A0F503
:103B00009850883809490860084609A102680948A0
:103B100001F00AFB0748FEF728FC10BD0038014001
:103B2000000801407C0600207D060020840600205D
:103B3000256400005A0700200948804709480047CB
:103B4000FEE7FEE7FEE7FEE7FEE7FEE7FEE7FEE74D
:103B5000FEE7FEE704480549054A064B70470000AA
:103B600087030008ED000008B0080020B00E002018
:103B7000B00A0020B00A002010B50446CC488442A8
:103B800008D10121042000F02DFB0021042000F0C9
:103B900029FB46E0C748844208D10121082000F0F3
:103BA00021FB0021082000F01DFB3AE0C2488442BE
:103BB00008D10121102000F015FB0021102000F099
:103BC00011FB2EE0BD48844208D10121202000F0E5
:103BD00009FB0021202000F005FB22E0B8488442C8
:103BE00008D10121402000F0FDFA0021402000F022
:103BF000F9FA16E0B348844208D10121802000F090
:103C0000F1FA0021802000F0EDFA0AE0AE4884428B
:103C100007D10121801500F0E5FA0021A01500F080
:103C2000E1FA10BD10B50121084600F0DBFA0021D1
:103C3000012000F0D7FA10BD2DE9F0410246002521
:103C40000026002000230024002791F803C00CF078
:103C50000F0591F803C00CF0100CBCF1000F03D05D
:103C600091F802C04CEA050591F800C0BCF1000FC4
:103C700031D0146800202BE04FF0010C0CFA00F357
:103C8000B1F800C00CEA03069E4220D183004FF039
:103C90000F0C0CFA03F7BC4305FA03FC4CEA0404CE
:103CA00091F803C0BCF1280F06D14FF0010C0CFABB
:103CB00000FCC2F814C00AE091F803C0BCF1480F40
:103CC00005D14FF0010C0CFA00FCC2F810C0401CEA
:103CD0000828D1D31460B1F800C0BCF1FF0F34DD67
:103CE000546800202EE000F1080C4FF0010808FA9B
:103CF0000CF3B1F800C00CEA03069E4221D1830008
:103D00004FF00F0C0CFA03F7BC4305FA03FC4CEA26
:103D1000040491F803C0BCF1280F05D100F1080C90
:103D200008FA0CF8C2F8148091F803C0BCF1480FEF
:103D300007D100F1080C4FF0010808FA0CF8C2F89E
:103D40001080401C0828CED35460BDE8F0814FF6A7
:103D5000FF710180022181700421C1707047024609
:103D6000002093680B400BB1012000E00020704759
:103D70000146886880B2704702460020D3680B4035
:103D80000BB1012000E0002070470146C86880B2F6
:103D9000704701617047416170470AB1016100E0FD
:103DA00041617047C16070474FF480320A438261BD
:103DB0008161826182698269704702460020434BBB
:103DC00018684FF68073184040EA021008433F4BD2
:103DD000186070473E49C8617047F0B50A46002335
:103DE00000240021002500F00046B6F1004F02D16A
:103DF000364EF16901E0354E7168C0F3034583B278
:103E000000F44016B6F5401F08D121F070612F4E26
:103E1000766826F070662D4F7E6012E000F4801602
:103E2000B6F5801F06D1032606FA05F4A14341F03A
:103E3000706106E0460D360103FA06F6B14341F023
:103E4000706122B1460D360103FA06F6314300F0E7
:103E50000046B6F1004F02D11C4EF16101E01B4E4D
:103E60007160F0BD30B500228B071C0F0F2303FAE1
:103E700004F2164B08338C1053F824309343134C40
:103E800008348D1044F8253023468C1053F8243024
:103E90008C07240F00FA04F423430C4C08348D10D3
:103EA00044F8253030BD0A49DC3108607047000015
:103EB00000080140000C01400010014000140140C6
:103EC00000180140001C014000200140000001409A
:103ED00000002042DF48006840F00100DD49086032
:103EE00008464068DC490840DA49486008460068EE
:103EF000DA490840D74908600846006820F4802065
:103F000008600846406820F4FE0048604FF41F0037
:103F100088607047CF49096821F48031CD4A11602B
:103F20001146096821F480211160B0F5803F03D06B
:103F3000B0F5802F0ED106E0C649096841F4803102
:103F4000C44A116007E0C349096841F4A021C14A8D
:103F5000116000E000BF00BF704710B501460022AD
:103F6000002300204A11012A02D1BA4C236806E03E
:103F7000022A02D1B74C236A01E0B64C636A01F011
:103F80001F02012494401C400CB1012000E00020DD
:103F900010BD38B5002000900024002500BF31205E
:103FA000FFF7DBFF05460098401C00900098B0F535
:103FB000A06F01D0002DF2D03120FFF7CEFF08B165
:103FC000012400E00024204638BD01460020A14A1B
:103FD000106820F0F80040EAC10010607047A04966
:103FE00008607047024600209A4B586820F47C1005
:103FF00042EA01031843974B586070479849086696
:10400000704701460020934A506820F0030008439F
:10401000506070478F48406800F00C0070470146C0
:1040200000208C4A506820F0F00008435060704730
:1040300001460020874A506820F4E0600843506041
:10404000704701460020834A506820F4605040EADF
:10405000C1005060704729B17E4A527A02437D4BBD
:104060005A7204E07B4A527A82437A4B5A72704702
:104070007B49D8310860704701460020754A506876
:1040800020F440400843506070470021714A2032BC
:104090001170704A82F82010012802D004280AD139
:1040A00004E001216B4A2032117005E00521694AC4
:1040B0002032117000E000BF00BF704769490860FE
:1040C00070476449096A0143624A11627047654951
:1040D00044390860704730B50021002200240023D5
:1040E0005C4D6D6805F00C0121B1042905D008294B
:1040F00023D105E05C4D056022E05B4D05601FE0CB
:10410000544D6D6805F47012524D6D6805F480349D
:10411000022505EB92421CB9544D554305600BE056
:104120004C4D6D6805F400351DB1504D554305608B
:1041300002E04D4D5543056002E04B4D056000BF68
:1041400000BF444D6D6805F0F0010909484D6B5CF6
:104150000568DD4045603F4D6D6805F4E061090A82
:10416000434D6B5C4568DD4085603A4D6D6805F4F4
:104170006051C90A3E4D6B5C4568DD40C560354DF8
:104180006D6805F44041890B3A4D6B5CC568B5FB21
:10419000F3F5056130BD29B12E4A526902432D4B1A
:1041A0005A6104E02B4A526982432A4B5A61704794
:1041B00029B1284A92690243264B9A6104E0254AB4
:1041C00092698243234B9A61704729B1214AD2698F
:1041D0000243204BDA6104E01E4AD26982431D4B40
:1041E000DA61704729B11B4AD2680243194BDA6081
:1041F00004E0184AD2688243164BDA60704729B14E
:10420000144A12690243134B1A6104E0114A1269FD
:104210008243104B1A617047124940390860704759
:104220000F49C86470470B49C87170470948406A14
:1042300040F0807007494862704701460020054AF7
:1042400092680A400AB1012000E00020704701494D
:1042500088727047001002400000FFF8FFFFF6FE72
:10426000000042428004424200127A0000093D00F0
:104270008C0600209C06002010B50446FB488442B2
:1042800009D101218803FFF7ADFF00214FF48040E1
:10429000FFF7A8FF32E0F648844209D10121480423
:1042A000FFF7ADFF00214FF40030FFF7A8FF25E036
:1042B000F048844209D101218804FFF7A0FF0021C2
:1042C0004FF48020FFF79BFF18E0EB48844209D1B0
:1042D0000121C804FFF793FF00214FF40020FFF7EE
:1042E0008EFF0BE0E548844208D101210805FFF765
:1042F00086FF00214FF48010FFF781FF10BD2DE9EC
:10430000F04786B005460E460024A24600BFA146EF
:104310000027B08900B100BF2F462C8A4CF6FF70F1
:104320000440F08804432C82AC894EF6F31004401C
:10433000B08831890843718908430443AC81AC8A51
:104340004FF6FF400440B0890443AC8201A8FFF758
:10435000C2FEC648874202D1DDF810A001E0DDF8B8
:104360000CA0A88900F4004040B10AEBCA0000EBA1
:104370000A1031684900B0FBF1F807E00AEBCA0007
:1043800000EB0A1031688900B0FBF1F86420B8FB3B
:10439000F0F004012009642101FB1089A88900F4D0
:1043A000004040B1322000EBC900B0FBF1F000F05A
:1043B0000700044308E0322000EB09106421B0FB41
:1043C000F1F000F00F0004432C8106B0BDE8F08747
:1043D0004FF41651016000218180C18001810C21C0
:1043E000418100218181704710B502460020108A6A
:1043F0004FF2FF0318400B884C8823438C882343DB
:10440000CC8823431843108210BD002101804180D5
:104410008180C180704721B1828942F4005282813B
:1044200004E082894DF6FF731A4082817047F0B52F
:104430000346002400260025002040F66A17B942F2
:1044400000D100BF1846C1F3421401F01F06012736
:1044500007FA06F5012C01D10C3004E0022C01D141
:10446000103000E014301AB107682F43076002E0F3
:104470000768AF430760F0BD1AB1838A0B4383829C
:1044800002E0838A8B4383827047028A4FF6F0737F
:104490001A400282028A0A430282704782894FF2DE
:1044A000FF731A40828182890A438281704721B159
:1044B000828942F00202828104E082894FF6FD7314
:1044C0001A4082817047028A4FF6DF731A400282D7
:1044D000028A0A430282704721B1028A42F4804272
:1044E000028204E0028A4BF6FF731A400282704790
:1044F000C1F308028280704701468888C0F3080033
:104500007047818941F0010181817047028BD2B2ED
:104510000283028B42EA012202837047028B02F47B
:104520007F420283028B0A430283704721B1828A51
:1045300042F02002828204E0828A4FF6DF731A4042
:104540008282704721B1828A42F01002828204E0A6
:10455000828A4FF6EF731A408282704721B1828AB5
:1045600042F00802828204E0828A4FF6F7731A4012
:104570008282704721B1828942F40042828103E045
:104580008289C2F30E028281704721B1828A42F48D
:104590000062828204E0828A4FF2FF731A408282B4
:1045A0007047828A4FF6FB731A408282828A0A43DE
:1045B0008282704721B1828A42F00202828204E044
:1045C000828A4FF6FD731A408282704702460020AD
:1045D000B1F5007F00D100BF13880B400BB1012063
:1045E00000E00020704701F40072B2F5007F00D1B6
:1045F00000BFCA430280704770B502460024002302
:104600000025002040F66A16B14200D100BFC1F378
:10461000421501F01F03012606FA03F3012D02D112
:104620009689334006E0022D02D1168A334001E01C
:10463000968A33400C12012606FA04F41688344098
:1046400013B10CB1012000E0002070BD10B50022B4
:10465000002340F66A14A14200D100BF0A120124CF
:104660009440A3B2DC43048010BD00000038014038
:104670000044004000480040004C00400050004012
:1046800031490143314A1160704770B50021002360
:104690000F22C47804B32D4C246804F4E064C4F5FC
:1046A000E064210AC1F10403CA40447804FA03F12A
:1046B0008478144021430901254C0678A1550478DB
:1046C00004F01F050124AC4005786D11AD0005F123
:1046D000E025C5F8004109E0047804F01F05012435
:1046E000AC401C4D0678761145F8264070BD1A4A3C
:1046F0000A400243154B1B1F1A60704739B1134A19
:10470000121D12680243114B1B1D1A6006E00F4A6E
:10471000121D126882430D4B1B1D1A60704704283E
:1047200008D14FF0E021096941F004014FF0E02287
:10473000116107E04FF0E021096921F004014FF019
:10474000E0221161704700000000FA050CED00E066
:1047500000E400E080E100E080FFFF1F10B50446A8
:10476000FA48844208D101214015FFF73BFD0021A2
:104770006015FFF737FD17E0F548844208D10121A5
:104780000015FFF72FFD00212015FFF72BFD0BE093
:10479000F048844208D10121C803FFF723FD00211E
:1047A0004FF40040FFF71EFD10BD30B5024600205B
:1047B00000235068E84C20400D790C6844EA052439
:1047C000204350609068E54C2040D1E902542C43CE
:1047D0004D7944EA450420439060D06A20F470008B
:1047E0000C7C641EE4B2234340EA0350D06230BD27
:1047F00000210160017141718160C160012101747A
:10480000704721B1826842F00102826003E0826851
:1048100022F001028260704721B1826842F4807206
:10482000826003E0826822F480728260704710B573
:104830000023CBB21AB144681C43446002E04468D0
:104840009C43446010BD816841F00801816070475D
:10485000014600208A6802F008020AB1012000E047
:1048600000207047816841F0040181607047014673
:1048700000208A6802F004020AB1012000E0002052
:10488000704721B1826842F4A002826003E082682E
:1048900022F4A00282607047014600208A6802F478
:1048A00080020AB1012000E00020704710B50A46DE
:1048B00000210023416821F46041531E41EA433145
:1048C000416010BD21B1426842F40062426003E0E1
:1048D000426822F4006242607047F0B504460D461B
:1048E00000200021092D11DDE068A5F10A0606EB84
:1048F0004607072606FA07F18843A5F10A0606EBE4
:10490000460603FA06F10843E0600CE0206905EB77
:104910004507072606FA07F1884305EB450603FA23
:1049200006F108432061072A0FDA606B561E06EB7A
:1049300086071F2606FA07F18843561E06EB8606F1
:1049400005FA06F10843606322E00D2A0FDA206BB6
:10495000D61F06EB86071F2606FA07F18843D61FE7
:1049600006EB860605FA06F10843206310E0E06ACC
:10497000A2F10D0606EB86071F2606FA07F188430B
:10498000A2F10D0606EB860605FA06F10843E06281
:10499000F0BD21B1826842F48012826003E0826837
:1049A00022F48012826070470146C86C80B2704762
:1049B00066484C300068704721B1426842F480621A
:1049C000426003E0426822F480624260704721B195
:1049D000426842F48052426003E0426822F480520E
:1049E000426070470A460021816821F4E04111438A
:1049F0008160704721B1826842F40042826003E026
:104A0000826822F400428260704721B1826842F4D9
:104A10000212826003E0826822F402128260704710
:104A2000014600208A6802F400120AB1012000E069
:104A300000207047F0B504461546002000220026ED
:104A4000092911DDE068A1F10A0707EB470C0727E8
:104A500007FA0CF29043A1F10A0707EB470703FAA4
:104A600007F21043E0600CE0206901EB410C0727DE
:104A700007FA0CF2904301EB410703FA07F21043E7
:104A80002061A06BC0F30156EF1C06F1010CA7EBEF
:104A90000C0707EB870C1F2707FA0CF29043EF1C5B
:104AA00006F1010CA7EB0C0707EB870701FA07F2E9
:104AB0001043A063F0BD10B50A4600210023816BAE
:104AC00021F44011531E41EA0351816310BD08B522
:104AD000002300930090009B0B440093009B1A60FE
:104AE00008BD08B5024600200090009201F12800A0
:104AF000009B184400900098006880B208BD0A46E8
:104B000000214168164B19401143416070474162D2
:104B1000826270470A460021416821F01F0111435B
:104B20004160704740B109490831096841F400010A
:104B3000064A0832116007E004490831096821F487
:104B40000001024A08321160704700000024014051
:104B500000280140003C0140FFFEF0FFFDF7F1FF9F
:104B6000FFFD3FFF0246002013680B400BB1012000
:104B700000E000207047CA430260704770B50246EB
:104B80000020002300240B125568CEB205EA06046B
:104B900015681D4015B10CB1012000E0002070BD6A
:104BA00000220A12D34303607047000010B5044688
:104BB000BE48844208D101218014FFF713FB002175
:104BC000A014FFF70FFB16E0B948844208D1012179
:104BD0000014FFF714FB00212014FFF710FB0AE07C
:104BE000B448844207D10121C013FFF708FB00211C
:104BF000E013FFF704FB10BD10B50022028802F499
:104C000041520B884C8823438C882343CC88234310
:104C10000C8923434C8923438C892343CC89234328
:104C20001A430280838B4FF2FF74234083830B8AE5
:104C3000038210BD2DE9F04F85B005460C464FF0BC
:104C4000000902274FF000084FF0010B0026B24682
:104C5000A88B4FF240010840A88302202884B5F8B1
:104C60001C90A068022801D100BF38E0A08810B9CC
:104C70004FF0010B01E04FF0020B8D48854200D14F
:104C800000E000BF6846FFF726FADDF800A0E088E4
:104C9000B0F5007F0AD14FEA1A2000EB80004000F7
:104CA000A168B0FBF1F0401D86B20BE04FEA4B105B
:104CB000BAFBF0F000EB80004000A168B0FBF1F01F
:104CC000401D86B20A20B6FBF0F606F00108A6EBFE
:104CD0000800C0F34F074FF6FF7000EA0828022FC4
:104CE00001DBFF2F02DD02274FF00008E08840EAD9
:104CF000080038432884A088A189084361880843B4
:104D00002188084340F4006040EA0909A5F81C9096
:104D100005B0BDE8F08F0021018041808180C18015
:104D2000018141818181C181072101827047002178
:104D3000018041808180C1800221816000218181C8
:104D4000704721B1028842F04002028004E00288EC
:104D50004FF6BF731A400280704721B1828B42F434
:104D60008062828304E0828B4FF6FF331A40828395
:104D7000704730B5002400230C110125A540ABB2CB
:104D80001AB185881D43858002E085889D43858012
:104D900030BD1AB183880B43838002E083888B4344
:104DA00083807047818170470146888970474FF63C
:104DB000FF62914204D0028842F48072028004E0D3
:104DC00002884FF6FF631A400280704721B1828843
:104DD00042F00402828004E082884FF6FB731A409E
:104DE0008280704702884FF2FF731A400280028867
:104DF0000A4302807047018841F480510180704766
:104E000021B1028842F40052028004E002884DF68B
:104E1000FF731A400280704702460020012901D02A
:104E2000108B00E0908A70470146088A7047B1F500
:104E3000804F04D1028842F48042028004E002885C
:104E40004BF6FF731A400280704702460020138918
:104E50000B400BB1012000E000207047CA430281E3
:104E60007047F0B50246002000240023002501F021
:104E70000F070126BE40B4B20B1101269E40B3B20B
:104E8000968806EA03051689264016B10DB1012061
:104E900000E00020F0BD10B5002201F00F04012356
:104EA000A3409AB2D343038110BD000000300140FB
:104EB00000380040003C004001684FF6FE7211408F
:104EC00001600021016041608160C1608D498842BC
:104ED00008D18C490839496841F00F01894A083ADC
:104EE00051608AE087491431884208D185490839E0
:104EF000496841F0F001834A083A51607DE08149F8
:104F00002831884208D17F490839496841F47061E5
:104F10007C4A083A516070E07A493C31884208D1B5
:104F200078490839496841F47041764A083A516035
:104F300063E074495031884208D1724908394968A0
:104F400041F470216F4A083A516056E06D4964316E
:104F5000884208D16B490839496841F47001694AAF
:104F6000083A516049E067497831884208D165497B
:104F70000839496841F07061624A083A51603CE082
:104F80006149884206D1011F096841F00F01021FE3
:104F9000116032E05C491431884208D15A49091F36
:104FA000096841F0F001584A121F116025E0564986
:104FB0002831884208D15449091F096841F47061B9
:104FC000514A121F116018E04F493C31884208D104
:104FD0004D49091F096841F470414B4A121F116085
:104FE0000BE049495031884207D14749091F0968F8
:104FF00041F47021444A121F1160704710B500221D
:10500000026847F6F0739A430C6A8B6823430C6975
:1050100023434C6923438C692343CC6923434C6A63
:1050200023438C6A23431A430260CB6843600B68B6
:1050300083604B68C36010BD0021016041608160E6
:10504000C160016141618161C1610162416281624E
:10505000704721B1026842F00102026004E0026878
:105060004FF6FE731A40026070471AB103680B4393
:10507000036002E003688B43036070474160704740
:105080000146486880B2704701460020002201F0C6
:1050900080531BB11C4B083B1A6802E0194B083BBC
:1050A0001A6802EA01030BB1012000E000207047FA
:1050B00000F0805119B11449091F086002E011493C
:1050C00008394860704701460020002201F08053F3
:1050D0001BB10D4B083B1A6802E00A4B083B1A68EB
:1050E00002EA01030BB1012000E00020704700F04C
:1050F000805119B10449091F086002E001490839CB
:1051000048607047080002400804024070470000F1
:105110000FB4044910B503AA029800F06DF910BC51
:105120005DF814FB880600200FB41CB5074B06AAD7
:105130007B4469460090059800F02FF900206946ED
:1051400000F03EF91CBC5DF814FB00008D0200006D
:105150002DE9F0410E460446002020622046E16819
:10516000884730B3252805D0D4E901219047206A2B
:10517000401CF2E7E168204600278847050018D068
:10518000A5F14100192802D820354FF400673246B6
:10519000294620462760FBF707F840B1012804D0D4
:1051A000F61D26F007060836D8E7361DD6E728464E
:1051B000DAE7206ABDE8F08170B50C460546012AA1
:1051C00005D02878800600D5EA69002302E0012393
:1051D00005E05B1C934202D2E05C0028F9D1A8698B
:1051E000E618C01AA861286A184428622846AFF356
:1051F000008004E0D5E9012114F8010B9047B44286
:10520000F8D32846AFF3008070BD00002DE9F041CF
:105210000646002410687529314616A510D0AFF354
:105220000080002802DA404213A507E031688A07AF
:1052300001D512A502E0490704D511A5012401E01A
:10524000AFF3008000210A2206F1240709E0B0FB39
:10525000F2FCB0FBF2F302FB1C003030785418462D
:10526000491C0028F3D123462A463046BDE8F041C8
:1052700000F035B8000000002D0000002B000000F9
:10528000200000000B4910B5A1F17C020A4CC2E9D4
:105290003712372106E000EB104342F82130074B6C
:1052A00000FB03400B1EA1F10101F4DC10BD012045
:1052B000E8E70000E8070020E119D666CD0D0100FF
:1052C000704770477047704710B500F0A7F8006846
:1052D00010BD10B5044600F0A1F8046010BD2DE922
:1052E000F0470D4699469246044600F124080168AD
:1052F000880604D5E06921F01001216000E001205A
:10530000A84201DD471B00E00027A1697A1902EBE2
:105310000900081AA0612078C00602D42046AFF325
:105320000080002608E0D4E901211AF80600904721
:10533000206A401C761C20624E45F4DB2078C006B3
:105340000AD52046AFF3008006E0D4E901213020E1
:105350009047206A401C2062381EA7F10107F4DC48
:1053600007E0D4E9012118F805009047206A401CA5
:105370002062281EA5F10105F3DC2046AFF3008072
:105380002078000602D50220BDE8F0870120FBE767
:1053900001694A1C02610878704700B58FB0CDE9F9
:1053A00001310021059105497944CDE903101146E9
:1053B0006846FFF7CDFE0FB000BD0000E5FFFFFF20
:1053C0000A6802F8010B0A60704710B5436913B10F
:1053D000AFF3008001E0FFF7EFFE012010BD12786F
:1053E00000F124010A7000224A700122EDE71168E1
:1053F0004FF0FF32E9E70000074B70B50D467B44E4
:10540000FFF7CBFF0446284600F00CF810B14FF030
:10541000FF3070BD204670BDA5E5FFFF0048704716
:1054200050080020007B00F0800070470048704763
:10543000500800207546FFF7F9FFAE4605006946A3
:10544000534620F00700854618B020B5FEF782FBD2
:10545000BDE820404FF000064FF000074FF0000875
:105460004FF0000B21F00701AC46ACE8C009ACE8F6
:10547000C009ACE8C009ACE8C0098D46704710B55A
:105480000446AFF300802046BDE81040FAF7A3BE03
:10549000490050EAC12018BF04204A0D18BF40F04F
:1054A000010040F2FF72B2EB515F08BF40F0020012
:1054B000012808BF052070472DE9F74F144694B026
:1054C0000021C4E902111599079121F00045C9494D
:1054D0008D4206DC1599C4E9000117B00020BDE833
:1054E000F08FC549DFF814A3A9423CDD0799C44EEB
:1054F0000029C44FC44A1599534619DD00F034FF02
:10550000554506D0C14AC24B00F02EFFC4E9000148
:105510000AE04FF0D352BE4B00F026FF32463B4626
:1055200000F022FFC4E9000117B00120BDE8F08FB0
:1055300000F080FB554506D0B44AB54B00F07AFB2D
:10554000C4E900010AE04FF0D352B14B00F072FB06
:1055500032463B4600F06EFBC4E9000117B04FF045
:10556000FF30BDE8F08FAB49A942159978DB21F0F7
:10557000004183468846A84AA84B00F0EBFD002274
:10558000A74B00F057FB00F05DFD099000F0B7FD60
:1055900006460F469C4A534600F0DCFD43465A46F9
:1055A00000F0D6FE80468A46984A994B30463946E6
:1055B00000F0D0FD2A0D01250B924246534600F023
:1055C000C7FE032DC4E9000139D00B98C1F30A517D
:1055D000401A05EB45111139814230DA9148C34632
:1055E000784400EB0510CDF80CA00C90D0E9002316
:1055F0003046394600F0AEFD02460B460491069057
:105600005846039900F0B0FE80468A4602460B4693
:105610005846039900F0A8FE049B069A00F0A4FEE9
:1056200083460C9803913946D0E90223304600F0B6
:1056300091FD5A46039B00F097FE6D1CBDE707984D
:105640000028A2BF099817B0BDE8F08F616881F00B
:1056500000416160099817B04042BDE8F08FFFE754
:1056600084461598C1F31301C0F30A50A0F2F53037
:105670004FEA601800F01F06C6F1200013900020CA
:105680000690079041F4801E05206D4676B1664A6B
:1056900008EB00017A4452F8213002EB8101B3405B
:1056A0004A68139922FA01F1194305E05F4908EBB2
:1056B0000002794451F82210A1FB0E27A1FB0C1324
:1056C0001A449A4234BF0123002303EB070A05EB77
:1056D0008003D3E901B70F448F4234BF0121002179
:1056E00093448B4411B1934502D903E0934501D211
:1056F000012100E00021C3E901B7514445F8201021
:10570000011EA0F10100C1DC0298059F00F10050CC
:10571000800F12900298DDE90356800000F0EFFC44
:10572000834628460D9100F001FD6FF01D0201F047
:1057300004FACDE90E01304600F0F8FC6FF03D02AE
:1057400001F0FBF980468A46384600F0EFFC6FF026
:105750005D0201F0F2F9074642465346119100F00E
:1057600069FADDE90E2300F065FA5A460D9B00F058
:1057700061FA00250E465A4628460D9B00F0F4FDBE
:10578000DDE90E2300F0F0FD4246534600F0ECFD4B
:105790003A46119B00F0DCFDDFF898A0244A5346FE
:1057A00000F0D8FC07468846234A244B3146284659
:1057B00000F0D0FC3A46434600F03CFA07468846E3
:1057C0004FF0A84253463146284600F0C3FC3A4603
:1057D000434600F02FFA159A12F0004F04D0129AA7
:1057E00081F0004152421292C4E90001129817B0B0
:1057F000BDE8F08FFB21E93F7CD90240FB21F93F56
:105800007370032E8A19A33B000040543163621A5F
:1058100061B4D03DFB21394183C8C96D305FE43F9D
:105820000000E03F7C200000F81F0000DA1F0000AD
:10583000182D4454FB21F93D3326A611460B113C8B
:105840002DE9FF4D21F0004807460C46B8F1795F7D
:1058500008DA00F0F7FB002801BF0020324904B04D
:10586000BDE8F08D3A4623461046194600F072FC1A
:10587000054602462D480E460B460621784400F0A8
:105880005DF82A46334600F065FCDDE902238246D6
:105890008B463846214600F05DFC04460F465246D2
:1058A0005B462846314600F055FC22463B4600F058
:1058B0005BFD07468A464FF0FF322846314601F02D
:1058C0003CF91B4A90450ADA3A46534600F04CFD33
:1058D00004B00022BDE8F04D134B00F039BD154A6D
:1058E0004245A8BFA8F500154FF00004B8BF124DFF
:1058F00022462B4600F038FD0646884622462B46B7
:105900000020094900F030FD04460D463A46534652
:105910003046414600F028FD04B022462B46BDE843
:10592000F04D00F015BD00000000F03FB01D00007C
:105930003333D33F0000E93F0000D23F2DE9F0416F
:105940004F1E00EBC7010446D1E9000115461E4673
:1059500037F006020DD02A46334600F0FBFB7F1ECF
:1059600004EBC703D3E9002300F064F937F0060223
:10597000F1D1022F25D0042F13D0062F18BFBDE878
:10598000F0812A46334600F0E5FBD4E90A2300F013
:1059900051F92A46334600F0DDFBD4E9082300F034
:1059A00049F92A46334600F0D5FBD4E9062300F036
:1059B00041F92A46334600F0CDFBD4E9042300F038
:1059C00039F92A46334600F0C5FBD4E9022300F03A
:1059D00031F92A46334600F0BDFBD4E90023BDE887
:1059E000F04100F027B900002DE9FF4D054621F0F8
:1059F000004084B00C46B0F1795F0BDA2846FFF71F
:105A000047FD042808BF00F06FF8284608B021467B
:105A1000BDE8F08D2A460B46104600F09BFB06467B
:105A20000F462A46234600F095FB804626488A46C4
:105A300032463B4605217844FFF780FF83461098A5
:105A4000029160B3214A224B4046514600F082FB4E
:105A5000CDE900015A4640465146029B00F07AFBD0
:105A600082468846DDE906014FF0FF3201F065F815
:105A70005246434600F078FC32463B4600F06AFB53
:105A8000DDE9062300F070FCDDE9002300F06CFC8A
:105A900008B02A462346BDE8F04D00F059BC0B463D
:105AA0005A463046394600F055FB084A084B00F08C
:105AB000C1F84246534600F04DFB08B02A46234643
:105AC000BDE8F04D00F0B6B8EE1C00004955555544
:105AD0005555C5BF012201F030B8002213461046CB
