:020000040800F2
:1000000010070020B1240008CF010008D10100082A
:10001000D5010008D9010008DD010008000000003A
:10002000000000000000000000000000E1010008E6
:10003000E301000800000000E5010008E7010008F6
:10004000CB240008CB240008CB240008CB240008D4
:10005000CB240008CB240008CB240008CB240008C4
:10006000CB240008CB240008CB240008CB240008B4
:10007000CB240008CB240008CB240008CB240008A4
:10008000CB240008CB240008CB240008CB24000894
:10009000CB240008CB240008CB240008CB24000884
:1000A000CB240008CB240008CB240008CB24000874
:1000B000CB240008CB240008CB240008CB24000864
:1000C000CB240008CB240008CB240008CB24000854
:1000D000CB240008B3230008CB240008CB2400085D
:1000E000CB240008CB240008CB24000800F002F841
:1000F00000F042F80AA090E8000C82448344AAF180
:100100000107DA4501D100F037F8AFF2090EBAE87D
:100110000F0013F0010F18BFFB1A43F0010318473B
:10012000CC4C0000EC4C0000103A24BF78C878C1D9
:10013000FAD8520724BF30C830C144BF04680C60ED
:10014000704700000023002400250026103A28BF35
:1001500078C1FBD8520728BF30C148BF0B60704739
:10016000642903F00F85732903F0F385002070479D
:100170001FB51FBD10B510BD03F006FE1146FFF7F9
:10018000F7FF00F008F803F024FE03B4FFF7F2FFD6
:1001900003BC02F0B3F810B500F095F802F044F893
:1001A00000F067FD322002F07CF84FF4E13002F0FD
:1001B000B4F800F028FF012000F02BFF0A2002F025
:1001C00070F800F05DFF01F0A3FD002010BD704746
:1001D00000BFFEE700BFFEE700BFFEE700BFFEE78F
:1001E00070477047704770470CB500200190009031
:1001F0006C48006840F480306A49086000BF694874
:10020000006800F4003000900198401C01900098B4
:1002100018B90198B0F5A06FF1D16248006800F4F8
:10022000003010B10120009001E000200090009803
:10023000012843D15C48006840F010005A4908602A
:100240000846006820F0030008600846006840F097
:1002500002000860534840685249486008464068B8
:1002600048600846406840F480604860084640683E
:1002700020F47C1048600846406840F4E81048606C
:100280000846006840F08070086000BF454800687C
:1002900000F000700028F9D04248406820F00300C8
:1002A000404948600846406840F00200486000BF8E
:1002B0003C48406800F00C000828F9D10CBD10B58E
:1002C000FFF792FF10BD10B53648006840F00100FE
:1002D000344908600846406834490840314948605C
:1002E00008460068324908402E4908600846006800
:1002F00020F4802008600846406820F4FE00486032
:100300004FF41F008860FFF7DAFF4FF000602949C3
:10031000086010BD10B5002100200022214B5B6851
:1003200003F00C0121B1042906D0082928D107E0E7
:10033000214B224C236027E01F4B204C236023E0FD
:10034000184B5B6803F47010164B5B6803F4803243
:10035000022303EB904022B9194B4343174C23600F
:100360000DE0104B5B6803F4003323B1144B43439F
:10037000124C236003E0104B4343104C236003E016
:100380000D4B0E4C236000BF00BF064B5B68C3F3F0
:1003900003130C4CE15C094B1B68CB40074C2360FA
:1003A00010BD000000100240002002400000FFF8D5
:1003B000FFFFF6FE08ED00E000127A0000000020CA
:1003C00000093D000400002070B505460E461446A5
:1003D0003146284600F008FC204600F0B2FB70BD14
:1003E0002DE9F05F06460F4614461D46A01B401C33
:1003F0001FFA80FAE81B401C1FFA80FB681E83B2BC
:10040000601E82B23946304600F0C2FB4FF0000851
:100410000FE04FF0000906E00A9800F092FB09F1A6
:1004200001001FFA80F9D145F6DB08F101001FFA3F
:1004300080F8D845EDDBF8484088401E83B2F64886
:100440000088401E82B20021084600F0A1FBBDE8F2
:10045000F09F2DE9FF4F85B081468A460020049029
:1004600003900798A0EB09050898A0EB0A06CDF8C1
:100470000890CDF804A0002D01DD012705E00DB99D
:10048000002702E04FF0FF376D42002E02DD4FF0F3
:10049000010806E016B94FF0000802E04FF0FF38FF
:1004A0007642B54201DD2C4600E034464FF0000BA9
:1004B00021E0019A91B2029A90B200F09FFB049859
:1004C000284404900398304403900498A04205DD2A
:1004D0000498001B04900298384402900398A042AC
:1004E00005DD0398001B03900198404401900BF137
:1004F00001001FFA80FB601C8345DADD09B0BDE80E
:10050000F08F2DE9F04104460D4616461F462B4656
:10051000324629462046FFF79CFF3B4622462946A5
:100520002046FFF796FF3B46324639462046FFF706
:1005300090FF3B46324629463046FFF78AFFBDE82A
:10054000F081F8B504460D4616461F46B3480088AC
:100550003B463246294600902046FFF741FFF8BD52
:100560002DE9F04104460D4616461F46DDF8188079
:10057000EA1991B2A21990B24246FFF725FFEA1993
:1005800091B2A21B90B24246FFF71EFFEA1B91B246
:10059000A21990B24246FFF717FFEA1B91B2A21BC5
:1005A00090B24246FFF710FFAA1991B2E21990B239
:1005B0004246FFF709FFAA1991B2E21B90B24246E8
:1005C000FFF702FFAA1B91B2E21990B24246FFF771
:1005D000FBFEAA1B91B2E21B90B24246FFF7F4FE6B
:1005E000BDE8F0812DE9FF4F81B08246174698465D
:1005F000DDF838B0002445464FEA4800C0F1030654
:10060000BBF1000F1FD01BE0A14608E04B4622467D
:10061000009750460299FFF7A3FF09F10109A94588
:10062000F4DD002E04DA042000FB0460861D06E0E1
:10063000601B042101FB006000F10A066D1E641CB2
:10064000AC42E1DD18E015E02B462246009750460B
:100650000299FFF785FF002E04DA042000FB0460F6
:10066000861D06E0601B042101FB006000F10A0604
:100670006D1E641CAC42E7DD05B0BDE8F08F2DE9CE
:10068000FF4F83B081468A469346DDE91064634894
:1006900000880290A6F12000C6B204EBD47009EBEA
:1006A0006000401E82B20AEB0400401E83B2514635
:1006B0004846019400F06CFA129860BB002527E0D0
:1006C0000C2C07D106EB4600554901EB800010F8D1
:1006D000058004E0534800EB061010F80580002761
:1006E0000FE008F0010020B10BF0FF0000F016FA57
:1006F00003E00699C8B200F011FA4FEA6808781CC6
:10070000C7B204EBD471B7EB610FEADB681CC5B26A
:10071000A542D5DB2DE0002529E00C2C07D106EB06
:1007200046003F4901EB800010F8058004E03D4899
:1007300000EB061010F80580002711E03748A0F8FC
:1007400000B008F0010038B10AEB050291B209EBE4
:10075000070290B200F052FA4FEA6808781CC7B25C
:1007600004EBD471B7EB610FE8DB681CC5B2A5429E
:10077000D3DB2A490298088027484088401E83B26C
:1007800025480088401E82B20021084600F000FA89
:1007900007B0BDE8F08F10B50246012000E05043DD
:1007A0000B1EA1F10104E1B2F9D110BD2DE9FF4FFB
:1007B00083B0074691461E46109C4FF0000A002564
:1007C0004EE0701B401EC1B20A20FFF7E4FFB9FBE8
:1007D000F0F00A21B0FBF1F201FB1208BAF1000FB0
:1007E00026D1701EA84223DDB8F1000F1ED10120D2
:1007F0002021A346CDE90014029004EBDB714910DF
:1008000001FB057188B208490B8804490A880499DC
:10081000FFF735FF22E000008C00002014000020CC
:1008200086430008FA470008160000204FF0010A2E
:10083000012108F13000C0B2A346CDE9014100908A
:1008400004EBDB71491001FB057188B253490B8839
:1008500053490A880499FFF712FF00BF681CC5B20C
:10086000B542AEDB07B0BDE8F08F2DE9FE4F06467E
:100870000F4691469A46DDE90D480C9DB34638E097
:1008800004EBD471474A1288A2EB6101B14204DB48
:1008900044494988091BB94201DABDE8FE8F28782E
:1008A0000D2804D1381987B25E466D1C20E00C2C4F
:1008B00001D0102C0FD1287853464A4639468DE88E
:1008C00011013046FFF7DBFE204604EBD07106EB4A
:1008D00061018EB20CE01021287853464A468DE81B
:1008E000030139463046FFF7CAFE06F1080086B21A
:1008F0006D1C28780028C3D100BFCEE72DE9FF4F3B
:1009000083B004460F469046DDE9119A109D2846B3
:1009100003F074F986B223490988A1EBC60000EB05
:10092000D071C1F34F0B04EB0B0188B28DE82006A8
:1009300042463946069BFFF798FF07B0BDE8F08FA7
:100940002DE9F04706460F46154607F1270083B20A
:1009500006F1270082B23946304600F019F900242A
:100960000AE015F8149005EB440090F8018049EA7C
:10097000082000F0E6F8641CB4F5C86FF1DB094804
:100980004088401E83B207480088401E82B2002182
:10099000084600F0FDF8BDE8F087000016000020D2
:1009A000140000208C0000200021082117E000F036
:1009B000800222B14FF40042FE4B1A6004E04FF473
:1009C0000042FC4B1B1D1A604FF40052F94B1B1DDB
:1009D0001A601B1F1A604206100E4A1ED1B200296F
:1009E000E5DC7047024600BF108900F002000028D5
:1009F000FAD0918100BF108900F001000028FAD0E0
:100A00009089C0B2704702884FF6C7731A400280BF
:100A1000012902D10288028003E0028842F020020C
:100A20000280028842F040020280704700B587B021
:100A30000121092002F078F84FF42040ADF80400BD
:100A400003208DF8060018208DF8070001A9D94869
:100A5000103801F0ADFD4FF48040ADF8040048209F
:100A60008DF8070003208DF8060001A9D148103841
:100A700001F09EFD41F20200ADF8040003208DF864
:100A8000060010208DF8070001A9CA48103801F0AF
:100A90008FFD4FF48051C748103801F038FE022115
:100AA000C448103801F033FE0121880302F049F8F0
:100AB0000020ADF808004FF48270ADF80A00002065
:100AC000ADF80C00ADF80E00ADF810004FF400705A
:100AD000ADF812000020ADF81400ADF816000720A4
:100AE000ADF8180002A9B44802F042FD0121B24855
:100AF00002F0E3FD07B000BD00B503464FF480509F
:100B0000AC49091D086002200860D9B2AA48FFF765
:100B100069FF4FF48050A749086000BD00B5034647
:100B20004FF48050A349091D08600220091F086086
:100B30001946A148FFF756FF4FF480509D490860C1
:100B400000BD00B503464FF480509A49091D086066
:100B50000220091F086019129748FFF743FFD9B216
:100B60009548FFF73FFF4FF480509249086000BD61
:100B700030B505460C462846FFF7BEFFE0B2FFF74A
:100B8000CDFF30BD00B58D490889FFF7B5FF00BD29
:100B9000F0B504460D4616461F4688494889FFF7BA
:100BA000ABFF2012FFF7BAFFA11CC8B2FFF7B6FFD8
:100BB0003012FFF7B3FFB11CC8B2FFF7AFFF7F4998
:100BC0008889FFF799FF2812FFF7A8FFE91CC8B230
:100BD000FFF7A4FF3812FFF7A1FFF91CC8B2FFF717
:100BE0009DFFFFF7CFFFF0BD30B504460D462B4605
:100BF000224629462046FFF7CBFF30BD30B50446DC
:100C00000D4629462046FFF7EFFF6D480088FFF7A5
:100C100098FF30BD08B50121082001F085FF4FF293
:100C20000200ADF8000003208DF8020010208DF8BE
:100C3000030069465F48103801F0BAFC08BD10B5E2
:100C4000642001F02EFB322001F02BFB10BD00B51B
:100C50002C205A4908810020887180200880488013
:100C60002A2048812B208881C8213620FFF780FF69
:100C700000BD10B5FFF7DAFEFFF7E1FF1120FFF727
:100C80003BFF782001F00DFBB120FFF735FF01207D
:100C9000FFF744FF2C20FFF741FF2D20FFF73EFF19
:100CA000B220FFF729FF0120FFF738FF2C20FFF7C4
:100CB00035FF2D20FFF732FFB320FFF71DFF012086
:100CC000FFF72CFF2C20FFF729FF2D20FFF726FF31
:100CD0000120FFF723FF2C20FFF720FF2D20FFF737
:100CE0001DFFB420FFF708FF0720FFF717FFC02004
:100CF000FFF702FFA220FFF711FF0220FFF70EFF10
:100D00008420FFF70BFFC120FFF7F6FEC520FFF799
:100D100005FFC220FFF7F0FE0A20FFF7FFFE0020CC
:100D2000FFF7FCFEC320FFF7E7FE8A20FFF7F6FE81
:100D30002A20FFF7F3FEC420FFF7DEFE8A20FFF72C
:100D4000EDFEEE20FFF7EAFEC520FFF7D5FE0E20F0
:100D5000FFF7E4FE3620FFF7CFFEC820FFF7DEFEE8
:100D6000E020FFF7C9FE0F20FFF7D8FE1A20FFF79B
:100D7000D5FE0F20FFF7D2FE1820FFF7CFFE2F2061
:100D8000FFF7CCFE2820FFF7C9FE2020FFF7C6FEA4
:100D90002220FFF7C3FE1F20FFF7C0FE1B20FFF736
:100DA000BDFE2320FFF7BAFE3720FFF7B7FE002075
:100DB00008E00000100C0140003800408C000020CA
:100DC00014000020FFF7AAFE0720FFF7A7FE02206D
:100DD000FFF7A4FE1020FFF7A1FEE120FFF78CFE35
:100DE0000F20FFF79BFE1B20FFF798FE0F20FFF759
:100DF00095FE1720FFF792FE3320FFF78FFE2C2081
:100E0000FFF78CFE2920FFF789FE2E20FFF786FED4
:100E10003020FFF783FE3020FFF780FE3920FFF7F8
:100E20007DFE3F20FFF77AFE0020FFF777FE0720C8
:100E3000FFF774FE0320FFF771FE1020FFF76EFE30
:100E40002A20FFF759FE0020FFF768FE0020FFF779
:100E500065FE0020FFF762FE7F20FFF75FFE2B207C
:100E6000FFF74AFE0020FFF759FE0020FFF756FE6D
:100E70000020FFF753FE9F20FFF750FEF020FFF702
:100E80003BFE0120FFF74AFEF620FFF735FE00206B
:100E9000FFF744FE3A20FFF72FFE0520FFF73EFE46
:100EA0002920FFF729FEFFF7D2FE10BD70B50646D8
:100EB0000F484088401E83B20D480088401E82B211
:100EC00000210846FFF764FE00240CE0002504E042
:100ED0003046FFF736FE681C85B205484088A842B8
:100EE000F6DC601C84B202480088A042EEDC70BDD3
:100EF0008C00002000B587B001214FF4017001F093
:100F000013FE0121084601F00FFE4FF4004001F0EE
:100F10006FFD0F20ADF8040000208DF8070001A937
:100F20004F4801F045FB4F4802F0D4F800200290F2
:100F300001208DF80C008DF80D004FF46020049016
:100F40000020059004208DF8180002A9454802F001
:100F5000E8F8072301220021424802F07AF907232A
:100F6000022201213F4802F074F9072303220221E3
:100F70003C4802F06EF9072304220321394802F0AD
:100F800068F90121374802F003F90121354802F0E0
:100F9000F4F8344802F013F900BF324802F014F9B3
:100FA0000028FAD12F4802F019F900BF2D4802F0AD
:100FB0001AF90028FAD107B000BD00B58BB00121A5
:100FC000084601F0A4FD284802F032FC25484C30C8
:100FD00000902648019000200290042003900020F9
:100FE000049080200590400006908000079020200B
:100FF00008900002099000200A9069461A4802F001
:10100000B9FC0BB000BD10B5FFF774FFFFF7D5FFBB
:1010100010BD10B5044644B10121124802F0EDF8AC
:101020000121114802F0D1FC07E000210D4802F037
:10103000E4F800210C4802F0C8FC10BD0B48008801
:101040000B490880094840880A4908800748808879
:10105000094908800548C088084908807047000091
:101060000008014000240140080002402200002046
:101070001E000020200000201A0000201C0000207C
:1010800008B50121082001F04FFD4FF47E60ADF856
:10109000000003208DF8020048208DF80300694607
:1010A000534801F085FA08BD10B5514801F01CFB0A
:1010B00050490880084600884FF6807141EA601068
:1010C000C0434D4908804D4800784D4908704A4852
:1010D0000078C0F30010494908700846007820B134
:1010E0004748007808B9012000E000204449087012
:1010F00044480078444908703F480078C0F34000F5
:10110000404908700846007820B13F48007808B987
:10111000012000E000203C4908703C4800783C4930
:10112000087035480078C0F3C00038490870084698
:10113000007820B13648007808B9012000E000208E
:101140003349087031480078324908702A480078DD
:10115000C0F38000304908700846007820B12D485F
:10116000007808B9012000E000202A4908702B48C7
:1011700000782B49087020480078C0F38010274978
:1011800008700846007820B12548007808B9012089
:1011900000E00020224908702248007822490870A7
:1011A00015480078C0F340101E49087008460078C2
:1011B00020B11D48007808B9012000E000201A493C
:1011C00008701A4800781A4908700B48007800F037
:1011D0000100164908700846007820B114480078CC
:1011E00008B9012000E000201149087010BD00007E
:1011F000000C01402A0000202C0000202E000020BE
:10120000320000202F00002033000020300000209A
:10121000340000203500002031000020360000207E
:1012200039000020370000203A000020380000205C
:101230003B0000200EB500200C23802202210090EC
:101240002620FFF7CDF8002018234B220A2100901A
:10125000FFF7C6F8002030234B2224210090FFF72F
:10126000BFF8FD480078012841D10C21FBA20023E2
:10127000CDE9002102904FF6E07219462620FFF7D3
:10128000F4FA01200C21F9A20023CDE900210290FB
:101290001F221846FFF7E9FA01200C21F7A20023CC
:1012A000CDE9002102901F2224211846FFF7DDFA24
:1012B00001200C21F5A20023CDE9002102904FF678
:1012C000FF726920FFF7D1FA01200C21EFA2002361
:1012D000CDE9002102904FF6FF7224216920FFF72B
:1012E000C4FA0020EA490870EA49087002E1DA48C5
:1012F0000078002844D101200C21E7A20023CDE989
:10130000002102904FF4FC6219462620FFF7ADFA47
:1013100001200C21E4A20023CDE90021029040F23B
:10132000FF721846FFF7A1FA01200C21E2A2002368
:10133000CDE90021029040F2FF7224211846FFF708
:1013400094FA01200C21E0A20023CDE900210290B3
:101350004FF6FF726920FFF788FA01200C21DAA20C
:101360000023CDE9002102904FF6FF72242169206D
:10137000FFF77BFA0020C6490870C6490870B9E03B
:10138000B5480078022859D101200C21CFA20023B2
:10139000CDE9002102904FF61F0219462620FFF7E3
:1013A00064FA01200C21CDA20023CDE90021029096
:1013B0004FF6E0721846FFF758FA01200C21CBA235
:1013C0000023CDE9002102904FF6FF721921202061
:1013D000FFF74BFA01200C21C6A20023CDE9002122
:1013E00002904FF4784224211846FFF73EFA01207C
:1013F0000C21BEA20023CDE9002102904FF6FF721E
:1014000031212020FFF731FA4FF6E0703E23802291
:101410000D2100904820FEF7E3FF00203C237E22B0
:101420000F2100904A20FEF7DBFFB6488088B649BE
:101430000880B448C088B54908805BE086480078D9
:10144000032857D101200C21B1A20023CDE90021AE
:10145000029040F2FF7219462620FFF706FA01209B
:101460000C21AFA20023CDE9002102904FF4FC62D1
:101470001846FFF7FAF901200C21ACA20023CDE9B0
:10148000002102904FF6E07218211846FFF7EDF99F
:1014900001200C21A8A20023CDE9002102904FF6E3
:1014A000FF726920FFF7E1F901200C21A2A20023BD
:1014B000CDE9002102904FF6FF7218216920FFF755
:1014C000D4F901200C219DA20023CDE90021029036
:1014D0004FF4784224211846FFF7C7F901200C2168
:1014E00099A20023CDE9002102901F223021184645
:1014F000FFF7BBF90B23802219460020FEF7A9FF56
:101500000C23802219460020FEF7A3FF0EBD0EB566
:101510000020FFF7CBFC01200C218EA20023CDE997
:10152000002102904FF6FF7219461846FFF79DF909
:101530003F23802219460020FEF78BFF40238022A4
:1015400019460020FEF785FF01200C2183A200230D
:10155000CDE9002102904FF6FF7241211846FFF7B6
:1015600084F96123802219460020FEF772FF62236E
:10157000802219460020FEF76CFF01200C217AA280
:101580000023CDE9002102904FF6FF726321184637
:10159000FFF76BF9FFF74EFE0EBD10B52E48007831
:1015A00018B901202C49087012E02B480078012856
:1015B00003D10220284908700AE027480078022851
:1015C00003D103202449087002E00020224908705A
:1015D000FFF79DFF10BD2DE9F04704461E48007837
:1015E000012838D14749488802F078FD8246614990
:1015F00002F088FD8146604902F05AFC804602F004
:1016000035FD87B2384602F069FD06465B4902F0B7
:10161000EDFB054602F02AFD594908803949088842
:1016200002F05CFD8246534902F06CFD814652494E
:1016300002F03EFC804602F019FD87B2384602F007
:101640004DFD06464D4902F0D1FB054602F00EFD68
:101650004C490880D0E097E03C000020434C4F53B9
:1016600045204C4F4F502043747200004C656E541F
:101670006F436F766572313A000000004C656E541E
:101680006F436F766572323A000000006D6D0000A6
:101690004C0000204D0000204F50454E204C4F4F35
:1016A0005020437472000000315374657020506FF5
:1016B000776572313A000000315374657020506FC5
:1016C000776572323A000000502A53004652454571
:1016D000204D4F544F52204374720000582D4469DE
:1016E00072656374696F6E3A000000006D6D2F7350
:1016F00000000000592D446972656374696F6E3A89
:1017000000000000220000205600002054000020AD
:101710004143545541544F5220437472000000001D
:101720004D616E75616C204374723A004175746F3F
:101730002043747220203A002500000056414C5688
:101740004531202020203A0056414C564532202079
:1017500020203A004D4F44453A0000004C6173741C
:101760002053656E743A0000466565646261636B80
:101770003A0000000000164300F07F450000484298
:101780003E00002040000020F749488802F0A6FCF7
:101790008246F64902F0B6FC8146F54902F088FB24
:1017A000804602F063FC87B2384602F097FC06469A
:1017B000002102F01BFB054602F058FCED490880B1
:1017C000E949088802F08AFC8246E84902F09AFC5E
:1017D0008146E74902F06CFB804602F047FC87B285
:1017E000384602F07BFC0646002102F0FFFA05466F
:1017F00002F03CFCE0490880DB488088DF4909882A
:10180000401ADF490860D848C088DE490988401A74
:10181000DD490860DA480068322818DDD7490988B0
:10182000C1F5805002F042FC0746D548006802F03E
:101830003DFC8046CD4902F065FC0646394602F083
:1018400037FB054602F0F6FBD04908601EE0CC48A5
:10185000006810F1320F16DAC848008802F03EFC2A
:101860000746C748006802F021FC8046BF4902F0E5
:1018700049FC0646394602F01BFB054602F0DAFB3E
:10188000C249086002E00020C0490860BE48006804
:10189000322819DDBB490988C1F5805002F006FCE9
:1018A0000746B9480068404202F000FC8046AF4954
:1018B00002F028FC0646394602F0FAFA054602F024
:1018C000B9FBB34908601FE0AF48006810F1320F60
:1018D00017DAAC48008802F001FC8046AA4800688C
:1018E000404202F0E3FB0746A04902F00BFC06462B
:1018F000414602F0DDFA054602F09CFBA44908606F
:1019000002E00020A2490860A1480068162148436F
:101910004FF47A7190FBF1F000B29E4908809B4829
:1019200000684042162148434FF47A7190FBF1F071
:1019300000B2994908805CB39848007898490870CB
:1019400098480078984908708749488802F0C6FB93
:1019500007464FF0864102F0D5FB0646844902F067
:10196000A7FA054602F082FB8C4908707E49088878
:1019700002F0B4FB07464FF0864102F0C3FB064677
:101980007B4902F095FA054602F070FB8549087024
:10199000BDE8F0873EB50120FFF71DFE83480078C3
:1019A000012803D081480078002866D10020182340
:1019B00068220D2100904C20FEF712FD00203023FC
:1019C0006822242100904C20FEF70AFD0C200323FE
:1019D0000090684802880C215520FEF7E7FE0C2095
:1019E000032300906448028824215520FEF7DEFE80
:1019F0006A4800786A49097888420BDD4FF6E07042
:101A00002323009065480278192165480078FEF785
:101A1000E7FC0FE06148007861490978884209DAFB
:101A20000020232300905E48027819215B4800784B
:101A3000FEF7D6FC5B4800785B49097888420BDDED
:101A40004FF4FC603D2300905648027831215648FF
:101A50000078FEF7C5FC2EE152480078524909781B
:101A60008842F8DA00203D2300904F480278312167
:101A70004C480078FEF7B4FC1DE14C480078022881
:101A800070D1002025231F2219210090FEF7A8FC09
:101A900000203D231F2231210090FEF7A1FC0020F1
:101AA0003C237E220F2100904A20FEF799FC3A4801
:101AB00000782530C3B2374800786430C2B225219F
:101AC0006420FEF7C6FC32480068002817DB0120BE
:101AD0000C2137A20023CDE9002102904FF4FC62D3
:101AE00019211846FEF7C1FE0C20009028480088F6
:101AF00082B2032319210A20FEF758FE16E00120C6
:101B00000C212CA20023CDE9002102901F221921D3
:101B10001846FEF7AAFE0C2000901D48008840429F
:101B200082B2032319210A20FEF740FE17480068FD
:101B3000002841DB01200C211DA20023CDE900215A
:101B400002904FF4FC6231211846FEF78EFE0C2005
:101B500000900E48008882B2032331210A20FEF74C
:101B600025FEA8E041E000002200002000C07944EA
:101B700000F07F453E00002040000020560000207D
:101B80005C00002054000020580000204800002085
:101B90004400002050000020520000204C00002093
:101BA0004E0000204D0000204F0000203C0000208F
:101BB0002B0000002D00000001200C21AFF20C02D0
:101BC0000023CDE9002102901F2231211846FEF7A3
:101BD0004CFE0C200090F8480088404282B203235B
:101BE00031210A20FEF7E2FD65E0F4480078032881
:101BF00061D100203C2368220D2100904520FEF792
:101C0000EFFBEF48006800281BDB01200C21AFF23E
:101C100060020023CDE9002102904FF4FC624620CF
:101C2000FEF723FEE64800680A2190FBF1F084B23B
:101C30000C2003232246014600905520FEF7B6FDF6
:101C40001AE001200C21AFF294020023CDE900211B
:101C500002901F224620FEF708FED9480068404245
:101C60000A2190FBF1F084B20C20032322460146A6
:101C700000905520FEF79AFDD24800880A2190FB7B
:101C8000F1F40C2003232246182100905520FEF782
:101C90008DFD0C2003230090CB4802782421552091
:101CA000FEF784FD0C2003230090C8480278302101
:101CB0005520FEF77BFD3EBD3EB5044600205E2369
:101CC00080224E210090FEF78BFB01201021002383
:101CD0004FF61F02CDE9004102904E211846FEF753
:101CE000C4FD3EBD3EB50446002080231A46702147
:101CF0000090FEF775FB01201021002340F2FF72D7
:101D0000CDE90041029070211846FEF7AEFD3EBDC0
:101D100086B00524FFF7FBFB51E2052447E21420BF
:101D200000F0BFFAFFF7C0F9A948008800287DD06D
:101D3000A848007800284DD00020FFF74CFC9F48B1
:101D4000007838BBA44800880A2190FBF1F59D4833
:101D50000088642190FBF1F62A4631469FA001F0ED
:101D600093FE9D4800880A2190FBF1F59548008874
:101D7000642190FBF1F000FB01F69AA033469AA291
:101D80009BA1CDE9000503A801F08AFE03A8FFF797
:101D900093FF1FE08948007801281BD189480088FB
:101DA000632805DD8748018894A001F06DFE04E0FA
:101DB0008448018893A001F067FEAFF23070009074
:101DC0008048038891A293A103A801F069FE03A8AB
:101DD000FFF772FF9148007800284FD00020FFF7EE
:101DE000FAFB7648007848BB7B4800880A2190FBC4
:101DF000F1F574480088642190FBF1F62A463146DB
:101E000087A001F041FE744800880A2190FBF1F59B
:101E10006C480088642190FBF1F000FB01F671A092
:101E2000334681A272A1CDE9000500E09DE003A840
:101E300001F036FE03A8FFF73FFF1FE05F48007880
:101E400001281BD15F480088632805DD5D480188B3
:101E500077A001F019FE04E05A48018876A001F04D
:101E600013FEAFF2D87000905648038874A269A19F
:101E700003A801F015FE03A8FFF71EFF72480078C3
:101E800060B30020FFF7A7FB4C48007830BB5248F6
:101E900000880A2190FBF1F54A480088642190FBF4
:101EA000F1F62A46314669A001F0EEFD4A48008865
:101EB0000A2190FBF1F543480088642190FBF1F082
:101EC00000FB01F647A0334662A249A1CDE9000517
:101ED00003A801F0E5FD03A8FFF7EEFE60480078D7
:101EE00060B30020FFF777FB3448007830BB3A48F6
:101EF00000880A2190FBF1F532480088642190FBAC
:101F0000F1F62A46314657A001F0BEFD324800885E
:101F10000A2190FBF1F52B480088642190FBF1F039
:101F200000FB01F62FA0334650A231A1CDE90005F8
:101F300003A801F0B5FD03A8FFF7BEFE4D480078E9
:101F400028B14DA001F0A0FD4EA0FFF7B5FE50480E
:101F5000007850B100204E490870FFF71EFB46A0E4
:101F600001F092FD47A0FFF7A7FE14480078022871
:101F70001FD1FFF70FFD10480068632805DD0E48EC
:101F8000016844A001F080FDB8E00B480068092812
:101F900005DD0948016841A001F076FDAEE0064884
:101FA0000068002806DD044801683EA001F06CFDD1
:101FB000A4E0FCE07AE00000480000203C000020A3
:101FC000440000203E00002060000020610000204E
:101FD0002C00002032000020400000204133256406
:101FE0002564000020543A00555020503A0000006B
:101FF00025732564257325640000000043302564A3
:1020000000000000433030256400000055503A20A5
:1020100000000000257325642573000033000020B4
:102020004134256425640000444F574E20503A0047
:102030004331256400000000433130256400000076
:10204000444F574E3A2000003500002042332564AB
:1020500025640000524947485420503A00000000CF
:102060003400002042342564256400004C45465469
:1020700020503A00370000204132303030433230B7
:102080003030000053544F5020414C4C00000000B1
:102090003900002041302564000000004130302527
:1020A000640000004130303025640000444800687E
:1020B00018B944A001F0E8FC20E04148006810F1A4
:1020C0000A0F07DD3E480088404281B23FA001F080
:1020D000DBFC13E03A48006810F1640F07DD384874
:1020E0000088404281B23BA001F0CEFC06E03448BB
:1020F0000088404281B239A001F0C6FC394800682E
:10210000632805DD3748016837A001F0BDFC3BE0DE
:1021100034480068092805DD3248016834A001F020
:10212000B3FC31E02F480068002805DD2D48016828
:1021300031A001F0A9FC27E02A48006818B930A0B6
:1021400001F0A2FC20E02748006810F10A0F07DD2B
:1021500024480088404281B22BA001F095FC13E096
:102160002048006810F1640F07DD1E4800884042D7
:1021700081B227A001F088FC06E01A48008840429E
:1021800081B225A001F080FC1648006824A1CDE9A9
:1021900000100B4823A2AFF2A811036803A801F0B6
:1021A0007FFC03A8FFF788FD642000F07AF8201E6A
:1021B000A4F10101CCB27FF4B2ADFFF7EBFBACE5CB
:1021C00048000020413230303000000041313030D2
:1021D0002564000041313025640000004131256450
:1021E0000000000044000020423025640000000090
:1021F0004230302564000000423030302564000059
:10220000423230303000000042313030256400006E
:102210004231302564000000423125640000000096
:10222000482E3A00562E3A0010B56FF0040000F028
:1022300032FF2E4800682E49B0FBF1F02D4908709E
:102240000846007800EB4001C1EBC0104FF6FF716B
:1022500001EAC0002849088010BD0146254A1278CD
:102260004A434FF0E0235A6100229A611A461269EC
:1022700042F001021A6100BF4FF0E022106900F045
:1022800001021AB100F48032002AF5D04FF0E022AA
:10229000126922F001024FF0E0231A6100229A61D4
:1022A00070470146144A12884A434FF0E0235A61AE
:1022B00000229A611A46126942F001021A6100BFB7
:1022C0004FF0E022106900F001021AB100F48032F0
:1022D000002AF5D04FF0E022126922F001024FF0FF
:1022E000E0231A6100229A6170470000000000207C
:1022F00000127A006200002064000020014600BF46
:10230000704700BF5E4A128802F04002002AF9D0EE
:10231000C2B25B4B1B1D1A80704710B586B00446D5
:10232000012144F2040000F0FFFB4FF40070ADF80F
:10233000140003208DF8160018208DF8170005A949
:10234000504800F035F94FF48060ADF814000420D7
:102350008DF8170005A94B4800F02AF925208DF8C3
:10236000000003208DF801008DF8020001208DF897
:102370000300684600F045FE01940020ADF8080017
:10238000ADF80A00ADF80C00ADF810000C20ADF867
:102390000E0001A93A4800F06EFC012240F22551DE
:1023A000374800F000FD0121354800F0F0FC06B090
:1023B00010BD38B540F22551314800F0D9FD002854
:1023C0005CD02F4800F054FDC4B2632C01DC612CBA
:1023D00003DA5A2C07DC412C05DB01202A4908705E
:1023E0002A48047014E028480078002810DD302CBA
:1023F0000BDB392C09DC2548234909784454224851
:102400000078401C2049087002E000201E49087036
:102410001D480078052831D100201B4908701B4851
:10242000007863282AD11948407830384FF47A71FF
:10243000484316498978303901EBC10202EB01119A
:1024400000EB81011148C078303800EB800001EBCF
:1024500040010E48007930380844A0F5985088387B
:102460000B4908600BA0009008460BA20DA1036861
:102470000E4801F015FB0D48FFF734FC38BD000095
:102480000038014000080140680000206900002079
:10249000700000206D6D0000436F766572643A2015
:1024A0000000000025732564257300009A000020B9
:1024B0000948804709480047FEE7FEE7FEE7FEE7D8
:1024C000FEE7FEE7FEE7FEE7FEE7FEE70448054914
:1024D000054A064B70470000C7020008ED000008DF
:1024E000100100201007002010030020100300201E
:1024F00010B50446CC48844208D10121042000F0E4
:102500002DFB0021042000F029FB46E0C74884424F
:1025100008D10121082000F021FB0021082000F053
:102520001DFB3AE0C248844208D10121102000F08E
:1025300015FB0021102000F011FB2EE0BD48844265
:1025400008D10121202000F009FB0021202000F00B
:1025500005FB22E0B848844208D10121402000F068
:10256000FDFA0021402000F0F9FA16E0B348844259
:1025700008D10121802000F0F1FA0021802000F034
:10258000EDFA0AE0AE48844207D10121801500F03F
:10259000E5FA0021A01500F0E1FA10BD10B5012107
:1025A000084600F0DBFA0021012000F0D7FA10BD48
:1025B0002DE9F041024600250026002000230024DA
:1025C000002791F803C00CF00F0591F803C00CF040
:1025D000100CBCF1000F03D091F802C04CEA0505C5
:1025E00091F800C0BCF1000F31D0146800202BE03E
:1025F0004FF0010C0CFA00F3B1F800C00CEA03062E
:102600009E4220D183004FF00F0C0CFA03F7BC431D
:1026100005FA03FC4CEA040491F803C0BCF1280F4E
:1026200006D14FF0010C0CFA00FCC2F814C00AE00D
:1026300091F803C0BCF1480F05D14FF0010C0CFA22
:1026400000FCC2F810C0401C0828D1D31460B1F8B7
:1026500000C0BCF1FF0F34DD546800202EE000F113
:10266000080C4FF0010808FA0CF3B1F800C00CEAAE
:1026700003069E4221D183004FF00F0C0CFA03F7A2
:10268000BC4305FA03FC4CEA040491F803C0BCF116
:10269000280F05D100F1080C08FA0CF8C2F81480D4
:1026A00091F803C0BCF1480F07D100F1080C4FF0BE
:1026B000010808FA0CF8C2F81080401C0828CED394
:1026C0005460BDE8F0814FF6FF71018002218170F6
:1026D0000421C17070470246002093680B400BB183
:1026E000012000E0002070470146886880B27047F2
:1026F00002460020D3680B400BB1012000E000200F
:1027000070470146C86880B27047016170474161F7
:1027100070470AB1016100E041617047C1607047D4
:102720004FF480320A4382618161826182698269E9
:10273000704702460020434B18684FF680731840DC
:1027400040EA021008433F4B186070473E49C86199
:102750007047F0B50A46002300240021002500F050
:102760000046B6F1004F02D1364EF16901E0354E18
:102770007168C0F3034583B200F44016B6F5401FFC
:1027800008D121F070612F4E766826F070662D4FCB
:102790007E6012E000F48016B6F5801F06D1032695
:1027A00006FA05F4A14341F0706106E0460D3601DA
:1027B00003FA06F6B14341F0706122B1460D3601CD
:1027C00003FA06F6314300F00046B6F1004F02D19D
:1027D0001C4EF16101E01B4E7160F0BD30B500226E
:1027E0008B071C0F0F2303FA04F2164B08338C10CF
:1027F00053F824309343134C08348D1044F825309B
:1028000023468C1053F824308C07240F00FA04F46C
:1028100023430C4C08348D1044F8253030BD0A4950
:10282000DC3108607047000000080140000C0140E6
:10283000001001400014014000180140001C01403C
:10284000002001400000014000002042DF480068F5
:1028500040F00100DD49086008464068DC49084056
:10286000DA49486008460068DA490840D7490860F4
:102870000846006820F4802008600846406820F47C
:10288000FE0048604FF41F0088607047CF49096818
:1028900021F48031CD4A11601146096821F480216C
:1028A0001160B0F5803F03D0B0F5802F0ED106E067
:1028B000C649096841F48031C44A116007E0C34940
:1028C000096841F4A021C14A116000E000BF00BFC7
:1028D000704710B501460022002300204A11012A4A
:1028E00002D1BA4C236806E0022A02D1B74C236A0F
:1028F00001E0B64C636A01F01F02012494401C40C1
:102900000CB1012000E0002010BD38B5002000907F
:102910000024002500BF3120FFF7DBFF05460098AB
:10292000401C00900098B0F5A06F01D0002DF2D0AF
:102930003120FFF7CEFF08B1012400E0002420463B
:1029400038BD01460020A14A106820F0F80040EA96
:10295000C10010607047A04908607047024600201F
:102960009A4B586820F47C1042EA01031843974BB5
:102970005860704798490866704701460020934A9E
:10298000506820F003000843506070478F4840684B
:1029900000F00C007047014600208C4A506820F07F
:1029A000F00008435060704701460020874A506895
:1029B00020F4E06008435060704701460020834ADD
:1029C000506820F4605040EAC1005060704729B15F
:1029D0007E4A527A02437D4B5A7204E07B4A527A15
:1029E00082437A4B5A7270477B49D83108607047EE
:1029F00001460020754A506820F44040084350606A
:102A000070470021714A20321170704A82F82010FC
:102A1000012802D004280AD104E001216B4A2032A7
:102A2000117005E00521694A2032117000E000BFF5
:102A300000BF70476949086070476449096A0143EB
:102A4000624A11627047654944390860704730B581
:102A500000210022002400235C4D6D6805F00C016C
:102A600021B1042905D0082923D105E05C4D05607A
:102A700022E05B4D05601FE0544D6D6805F4701257
:102A8000524D6D6805F48034022505EB92421CB965
:102A9000544D554305600BE04C4D6D6805F4003511
:102AA0001DB1504D5543056002E04D4D5543056045
:102AB00002E04B4D056000BF00BF444D6D6805F05E
:102AC000F0010909484D6B5C0568DD4045603F4DEC
:102AD0006D6805F4E061090A434D6B5C4568DD40B3
:102AE00085603A4D6D6805F46051C90A3E4D6B5CD6
:102AF0004568DD40C560354D6D6805F44041890B82
:102B00003A4D6B5CC568B5FBF3F5056130BD29B185
:102B10002E4A526902432D4B5A6104E02B4A5269F6
:102B200082432A4B5A61704729B1284A926902436D
:102B3000264B9A6104E0254A92698243234B9A61AD
:102B4000704729B1214AD2690243204BDA6104E07F
:102B50001E4AD26982431D4BDA61704729B11B4A74
:102B6000D2680243194BDA6004E0184AD268824303
:102B7000164BDA60704729B1144A12690243134BAD
:102B80001A6104E0114A12698243104B1A617047BE
:102B900012494039086070470F49C86470470B49B3
:102BA000C87170470948406A40F080700749486220
:102BB000704701460020054A92680A400AB1012088
:102BC00000E0002070470149887270470010024001
:102BD0000000FFF8FFFFF6FE000042428004424280
:102BE00000127A0000093D007800002088000020D3
:102BF00010B50446FB48844209D101218803FFF740
:102C0000ADFF00214FF48040FFF7A8FF32E0F64807
:102C1000844209D101214804FFF7ADFF00214FF4A0
:102C20000030FFF7A8FF25E0F048844209D10121D8
:102C30008804FFF7A0FF00214FF48020FFF79BFFDF
:102C400018E0EB48844209D10121C804FFF793FF43
:102C500000214FF40020FFF78EFF0BE0E54884428F
:102C600008D101210805FFF786FF00214FF48010ED
:102C7000FFF781FF10BD2DE9F04786B005460E46EF
:102C80000024A24600BFA1460027B08900B100BFC2
:102C90002F462C8A4CF6FF700440F08804432C82A7
:102CA000AC894EF6F3100440B0883189084371892D
:102CB00008430443AC81AC8A4FF6FF400440B0891E
:102CC0000443AC8201A8FFF7C2FEC648874202D186
:102CD000DDF810A001E0DDF80CA0A88900F40040A8
:102CE00040B10AEBCA0000EB0A1031684900B0FBA2
:102CF000F1F807E00AEBCA0000EB0A10316889001E
:102D0000B0FBF1F86420B8FBF0F004012009642165
:102D100001FB1089A88900F4004040B1322000EB8B
:102D2000C900B0FBF1F000F00700044308E03220D6
:102D300000EB09106421B0FBF1F000F00F00044338
:102D40002C8106B0BDE8F0874FF4165101600021D8
:102D50008180C18001810C214181002181817047E6
:102D600010B502460020108A4FF2FF0318400B886E
:102D70004C8823438C882343CC88234318431082F8
:102D800010BD0021018041808180C180704721B148
:102D9000828942F40052828104E082894DF6FF73F9
:102DA0001A4082817047F0B50346002400260025B2
:102DB000002040F66A17B94200D100BF1846C1F39F
:102DC000421401F01F06012707FA06F5012C01D174
:102DD0000C3004E0022C01D1103000E014301AB1A4
:102DE00007682F43076002E00768AF430760F0BD44
:102DF0001AB1838A0B43838202E0838A8B438382E6
:102E00007047028A4FF6F0731A400282028A0A4320
:102E10000282704782894FF2FF731A408281828951
:102E20000A438281704721B1828942F00202828185
:102E300004E082894FF6FD731A4082817047028A4E
:102E40004FF6DF731A400282028A0A4302827047F9
:102E500021B1028A42F48042028204E0028A4BF6E7
:102E6000FF731A4002827047C1F3080282807047E4
:102E700001468888C0F308007047818941F001014C
:102E800081817047028BD2B20283028B42EA012217
:102E900002837047028B02F47F420283028B0A4353
:102EA0000283704721B1828A42F02002828204E0CC
:102EB000828A4FF6DF731A408282704721B1828A7C
:102EC00042F01002828204E0828A4FF6EF731A40C9
:102ED0008282704721B1828A42F00802828204E035
:102EE000828A4FF6F7731A408282704721B1828935
:102EF00042F40042828103E08289C2F30E028281A1
:102F0000704721B1828A42F40062828204E0828AA0
:102F10004FF2FF731A4082827047828A4FF6FB732A
:102F20001A408282828A0A438282704721B1828A51
:102F300042F00202828204E0828A4FF6FD731A4058
:102F40008282704702460020B1F5007F00D100BFA9
:102F500013880B400BB1012000E00020704701F402
:102F60000072B2F5007F00D100BFCA4302807047F3
:102F700070B50246002400230025002040F66A16A2
:102F8000B14200D100BFC1F3421501F01F03012679
:102F900006FA03F3012D02D19689334006E0022D93
:102FA00002D1168A334001E0968A33400C12012682
:102FB00006FA04F41688344013B10CB1012000E085
:102FC000002070BD10B50022002340F66A14A14213
:102FD00000D100BF0A1201249440A3B2DC43048054
:102FE00010BD00000038014000440040004800408F
:102FF000004C00400050004031490143314A11600B
:10300000704770B5002100230F22C47804B32D4C03
:10301000246804F4E064C4F5E064210AC1F1040307
:10302000CA40447804FA03F184781440214309012A
:10303000254C0678A155047804F01F050124AC4006
:1030400005786D11AD0005F1E025C5F8004109E0F6
:10305000047804F01F050124AC401C4D067876115D
:1030600045F8264070BD1A4A0A400243154B1B1F03
:103070001A60704739B1134A121D12680243114B8E
:103080001B1D1A6006E00F4A121D126882430D4B89
:103090001B1D1A607047042808D14FF0E021096910
:1030A00041F004014FF0E022116107E04FF0E02110
:1030B000096921F004014FF0E0221161704700001E
:1030C0000000FA050CED00E000E400E080E100E023
:1030D00080FFFF1F10B50446FA48844208D1012141
:1030E0004015FFF73BFD00216015FFF737FD17E0A6
:1030F000F548844208D101210015FFF72FFD00217A
:103100002015FFF72BFD0BE0F048844208D1012188
:10311000C803FFF723FD00214FF40040FFF71EFD19
:1031200010BD30B50246002000235068E84C204016
:103130000D790C6844EA0524204350609068E54C02
:103140002040D1E902542C434D7944EA4504204300
:103150009060D06A20F470000C7C641EE4B22343BB
:1031600040EA0350D06230BD00210160017141711D
:103170008160C16001210174704721B1826842F011
:103180000102826003E0826822F0010282607047DF
:1031900021B1826842F48072826003E0826822F486
:1031A00080728260704710B50023CBB21AB14468B8
:1031B0001C43446002E044689C43446010BD816845
:1031C00041F0080181607047014600208A6802F0E2
:1031D00008020AB1012000E000207047816841F038
:1031E000040181607047014600208A6802F00402F1
:1031F0000AB1012000E00020704721B1826842F44A
:10320000A002826003E0826822F4A002826070471C
:10321000014600208A6802F480020AB1012000E021
:103220000020704710B50A4600210023416821F4B0
:103230006041531E41EA4331416010BD21B14268F3
:1032400042F40062426003E0426822F4006242609D
:103250007047F0B504460D4600200021092D11DD10
:10326000E068A5F10A0606EB4607072606FA07F10D
:103270008843A5F10A0606EB460603FA06F1084361
:10328000E0600CE0206905EB4507072606FA07F128
:10329000884305EB450603FA06F108432061072A37
:1032A0000FDA606B561E06EB86071F2606FA07F13B
:1032B0008843561E06EB860605FA06F1084360634E
:1032C00022E00D2A0FDA206BD61F06EB86071F2699
:1032D00006FA07F18843D61F06EB860605FA06F1C3
:1032E0000843206310E0E06AA2F10D0606EB8607B2
:1032F0001F2606FA07F18843A2F10D0606EB8606A3
:1033000005FA06F10843E062F0BD21B1826842F49B
:103310008012826003E0826822F48012826070472B
:103320000146C86C80B2704766484C3000687047F0
:1033300021B1426842F48062426003E0426822F4B4
:1033400080624260704721B1426842F4805242601C
:1033500003E0426822F48052426070470A4600212E
:10336000816821F4E04111438160704721B1826896
:1033700042F40042826003E0826822F400428260EC
:10338000704721B1826842F40212826003E08268D1
:1033900022F4021282607047014600208A6802F41B
:1033A00000120AB1012000E000207047F0B5044689
:1033B0001546002000220026092911DDE068A1F150
:1033C0000A0707EB470C072707FA0CF29043A1F115
:1033D0000A0707EB470703FA07F21043E0600CE027
:1033E000206901EB410C072707FA0CF2904301EB2F
:1033F000410703FA07F210432061A06BC0F30156A6
:10340000EF1C06F1010CA7EB0C0707EB870C1F273D
:1034100007FA0CF29043EF1C06F1010CA7EB0C0726
:1034200007EB870701FA07F21043A063F0BD10B560
:103430000A4600210023816B21F44011531E41EA0A
:103440000351816310BD08B5002300930090009BD9
:103450000B440093009B1A6008BD08B5024600208B
:103460000090009201F12800009B18440090009801
:10347000006880B208BD0A4600214168164B194019
:103480001143416070474162826270470A460021E1
:10349000416821F01F0111434160704740B1094963
:1034A0000831096841F40001064A0832116007E05A
:1034B00004490831096821F40001024A0832116008
:1034C000704700000024014000280140003C0140FA
:1034D000FFFEF0FFFDF7F1FFFFFD3FFF024600207A
:1034E00013680B400BB1012000E000207047CA4375
:1034F0000260704770B502460020002300240B12C2
:103500005568CEB205EA060415681D4015B10CB128
:10351000012000E0002070BD00220A12D3430360A6
:103520007047000010B50446BE48844208D101210E
:103530008014FFF713FB0021A014FFF70FFB16E028
:10354000B948844208D101210014FFF714FB00217F
:103550002014FFF710FB0AE0B448844207D1012190
:10356000C013FFF708FB0021E013FFF704FB10BDB9
:1035700010B50022028802F441520B884C88234384
:103580008C882343CC8823430C8923434C892343D1
:103590008C892343CC8923431A430280838B4FF2C7
:1035A000FF74234083830B8A038210BD2DE9F04F03
:1035B00085B005460C464FF0000902274FF0000881
:1035C0004FF0010B0026B246A88B4FF24001084095
:1035D000A88302202884B5F81C90A068022801D195
:1035E00000BF38E0A08810B94FF0010B01E04FF0A8
:1035F000020B8D48854200D100E000BF6846FFF70E
:1036000026FADDF800A0E088B0F5007F0AD14FEA85
:103610001A2000EB80004000A168B0FBF1F0401DD3
:1036200086B20BE04FEA4B10BAFBF0F000EB8000E3
:103630004000A168B0FBF1F0401D86B20A20B6FB45
:10364000F0F606F00108A6EB0800C0F34F074FF6AE
:10365000FF7000EA0828022F01DBFF2F02DD02279E
:103660004FF00008E08840EA080038432884A0882A
:10367000A1890843618808432188084340F4006019
:1036800040EA0909A5F81C9005B0BDE8F08F0021BB
:10369000018041808180C180018141818181C1811E
:1036A0000721018270470021018041808180C18013
:1036B0000221816000218181704721B1028842F09E
:1036C0004002028004E002884FF6BF731A40028075
:1036D000704721B1828B42F48062828304E0828B46
:1036E0004FF6FF331A408283704730B50024002321
:1036F0000C110125A540ABB21AB185881D43858008
:1037000002E085889D43858030BD1AB183880B43D4
:10371000838002E083888B43838070478181704778
:103720000146888970474FF6FF62914204D00288B3
:1037300042F48072028004E002884FF6FF631A4070
:103740000280704721B1828842F00402828004E046
:1037500082884FF6FB731A408280704702884FF2CE
:10376000FF731A40028002880A4302807047018872
:1037700041F480510180704721B1028842F4005227
:10378000028004E002884DF6FF731A400280704701
:1037900002460020012901D0108B00E0908A70477A
:1037A0000146088A7047B1F5804F04D1028842F47F
:1037B0008042028004E002884BF6FF731A400280C8
:1037C00070470246002013890B400BB1012000E036
:1037D00000207047CA4302817047F0B502460020BE
:1037E00000240023002501F00F070126BE40B4B2DB
:1037F0000B1101269E40B3B2968806EA030516898E
:10380000264016B10DB1012000E00020F0BD10B53A
:10381000002201F00F040123A3409AB2D343038195
:1038200010BD00000030014000380040003C004066
:1038300001684FF6FE721140016000210160416095
:103840008160C1608D49884208D18C490839496836
:1038500041F00F01894A083A51608AE087491431E2
:10386000884208D185490839496841F0F001834A06
:10387000083A51607DE081492831884208D17F496A
:103880000839496841F470617C4A083A516070E037
:103890007A493C31884208D178490839496841F46D
:1038A0007041764A083A516063E074495031884269
:1038B00008D172490839496841F470216F4A083AC1
:1038C000516056E06D496431884208D16B4908392E
:1038D000496841F47001694A083A516049E0674912
:1038E0007831884208D165490839496841F07061EA
:1038F000624A083A51603CE06149884206D1011FA2
:10390000096841F00F01021F116032E05C49143177
:10391000884208D15A49091F096841F0F001584A04
:10392000121F116025E056492831884208D15449B8
:10393000091F096841F47061514A121F116018E0B3
:103940004F493C31884208D14D49091F096841F46B
:1039500070414B4A121F11600BE0494950318842B7
:1039600007D14749091F096841F47021444A121FD1
:103970001160704710B50022026847F6F0739A4351
:103980000C6A8B6823430C6923434C6923438C697D
:103990002343CC6923434C6A23438C6A23431A4351
:1039A0000260CB6843600B6883604B68C36010BDE6
:1039B0000021016041608160C160016141618161FC
:1039C000C161016241628162704721B1026842F0C7
:1039D0000102026004E002684FF6FE731A400260C2
:1039E00070471AB103680B43036002E003688B431E
:1039F00003607047416070470146486880B2704775
:103A000001460020002201F080531BB11C4B083BF3
:103A10001A6802E0194B083B1A6802EA01030BB16D
:103A2000012000E00020704700F0805119B11449D6
:103A3000091F086002E011490839486070470146D3
:103A40000020002201F080531BB10D4B083B1A6887
:103A500002E00A4B083B1A6802EA01030BB101209D
:103A600000E00020704700F0805119B10449091F9F
:103A7000086002E0014908394860704708000240C8
:103A800008040240704700000FB4044910B503AAAF
:103A9000029800F063F910BC5DF814FB740000207C
:103AA0000FB41CB5074B06AA7B44694600900598E5
:103AB00000F025F90020694600F034F91CBC5DF8DF
:103AC00014FB0000790200002DE9F0410E46044687
:103AD000002020622046E168884730B3252805D0C1
:103AE000D4E901219047206A401CF2E7E1682046B2
:103AF00000278847050018D0A5F14100192802D8F1
:103B000020354FF400673246294620462760FCF7EF
:103B100027FB40B1012804D0F61D26F00706083621
:103B2000D8E7361DD6E72846DAE7206ABDE8F081F7
:103B300070B50C460546012A05D02878800600D5C8
:103B4000EA69002302E0012305E05B1C934202D2F4
:103B5000E05C0028F9D1A869E618C01AA861286AB3
:103B6000184428622846AFF3008004E0D5E901211B
:103B700014F8010B9047B442F8D32846AFF3008005
:103B800070BD00002DE9F04106460024106875293B
:103B9000314616A510D0AFF30080002802DA40426B
:103BA00013A507E031688A0701D512A502E049078D
:103BB00004D511A5012401E0AFF3008000210A2201
:103BC00006F1240709E0B0FBF2FCB0FBF2F302FBC4
:103BD0001C00303078541846491C0028F3D1234685
:103BE0002A463046BDE8F04100F02BB80000000046
:103BF0002D0000002B0000002000000010B5431C29
:103C000002E010F8011B71B18107FAD14FF00132C7
:103C100002C88C1A8C4314EAC211F9D0C01A0A06E1
:103C200003D0C01E10BDC01A10BD0A0401D0801EF2
:103C300010BD0902FCD0401E10BD70477047704790
:103C400070472DE9F0470D4699469246044600F12B
:103C500024080168880604D5E06921F0100121607C
:103C600000E00120A84201DD471B00E00027A16918
:103C70007A1902EB0900081AA0612078C00602D464
:103C80002046AFF30080002608E0D4E901211AF8AD
:103C900006009047206A401C761C20624E45F4DBEB
:103CA0002078C0060AD52046AFF3008006E0D4E9AC
:103CB000012130209047206A401C2062381EA7F165
:103CC0000107F4DC07E0D4E9012118F8050090476A
:103CD000206A401C2062281EA5F10105F3DC204665
:103CE000AFF300802078000602D50220BDE8F087FF
:103CF0000120FBE701694A1C02610878704700B5A2
:103D00008FB0CDE901310021059105497944CDE914
:103D1000031011466846FFF7D7FE0FB000BD000044
:103D2000E5FFFFFF0A6802F8010B0A60704710B553
:103D3000436913B1AFF3008001E0FFF7F9FE012002
:103D400010BD127800F124010A7000224A7001228D
:103D5000EDE711684FF0FF32E9E70000074B70B55F
:103D60000D467B44FFF7CBFF0446284600F008F8D9
:103D700010B14FF0FF3070BD204670BD9DE5FFFFD4
:103D8000007B00F080007047754600F02BF8AE46CF
:103D900005006946534620F00700854618B020B557
:103DA000FEF794FBBDE820404FF000064FF00007FF
:103DB0004FF000084FF0000B21F00701AC46ACE8D3
:103DC000C009ACE8C009ACE8C009ACE8C0098D4640
:103DD000704710B50446AFF300802046BDE81040A0
:103DE000FCF7D3B900487047AC00002090EA010FFF
:103DF00048BF81F0004100F15882421A3CBF801A4E
:103E000089184FEAD0524FF07F4C1CEA410FA2EBC9
:103E1000D15318BF9CEA026F00F03B804FF0004C7A
:103E20004CEA00204CEA012121FA03FC10EB0C0CB7
:103E30001ED202F1FF325FEA1C2040EBC25038BFB5
:103E400070471CF07F0F4FEA400C18BFBCF17F4F4A
:103E500038BF7047C3F12003994008BF20F001002C
:103E6000BCF17F4F38BF7047A0F1C04000F011BADD
:103E70004FEA3C00000A40EBC25028BF1CF0FF0F85
:103E80004FEA400CE6D018BFBCF17F4F38BF7047F7
:103E9000EAE79CEA026F05D010EA5C0F08BF00F069
:103EA0000040704710B500F0AEF900BF64FBBE3EA5
:103EB0004FF47F0C1CEAD0121EBF1CEAD11392EA09
:103EC0000C0F93EA0C0F00F0858090EA010F48BFB9
:103ED00042F4807240F4000C41F400002CF07F4169
:103EE00020F07F4000B58142A2EB03020FF2081CD4
:103EF000ACEB504EC0F100009EF800E04FEA4E0ED1
:103F000000FB0EFC38BF49004FEA2C1C02F5FA02F8
:103F10000CFB0EF34FEACE1E4FEA112C4FEAC121E3
:103F20000EEB635E42EB22420EFB0CFC4FEA1C538D
:103F300000FB03114FEA112C4FEA01310EFB0CFC80
:103F40004FEADC4C00FB0C11C14228BF09184CEBB6
:103F500003335DF804EB10EB410143EBC250B2F5C3
:103F60007C0F38BF704729D512F0F00F1CBF00F14D
:103F7000C04000F0004070470081828384858687BE
:103F800088898B8C8D8E8F919293959697999A9C18
:103F90009D9FA0A2A3A5A7A8AAACAEB0B2B3B5B787
:103FA000B9BCBEC0C2C5C7C9CCCED1D4D7D9DCDF5D
:103FB000E2E6E9ECF0F3F7FAFE0000004FEA400C0D
:103FC0000CF1807CBCF17E4F28BF7047B0F1C0403F
:103FD00000F05FB990EA010F0CEAD11348BF42F438
:103FE0008072624538BF634507D213F47F0F16D045
:103FF00080EA010000F00040704710B500F003F9BE
:10400000097EFC3E00F005B880EA010000F00040A7
:10401000704780EA010000F0004000F03AB912F465
:104020007F0F04BF0248704780EA010000F031B9F9
:104030000000C07F41000B0ED3F19E0208D950F45E
:1040400000034FEA032323FA02F048BF40427047BF
:1040500010B500F0D8F800BF4992248000207047C6
:104060006FF0004282EA200070470000C10DD1F1DC
:104070009E0206DB4FEA002343F0004323FA02F0DE
:104080007047004207D54FEA4001B1F1FE4F02D21E
:104090004FF00000704710B500F0B5F84992248049
:1040A000002070476FEA20007047000010F00041C8
:1040B00048BF4042B0FA80F310FA03F2C3F19D0307
:1040C0000BD051EAC35101EB1220530638BF7047A1
:1040D00000F1010008BF20F001007047B0FA80F342
:1040E00010FA03F2C3F19D030AD0D90501EB1220A7
:1040F000530638BF704700F1010008BF20F00100EF
:10410000704700004FF47F0C1CEAD0121EBF1CEA5F
:10411000D11392EA0C0F93EA0C0F00F0478090EA5B
:10412000010F48BF42F480724FF0004C4CEA00206F
:104130004CEA012102EB0302A0FB0113A2F50002ED
:10414000002918BF43F001035B0028BF4FEA330387
:1041500042EB22425FEA132C4CEBC2502EBFBCEB69
:10416000436FB2F57C0F70474FEA036CBCF1004F10
:1041700008BF20F00100B2F57C0F38BF70470BD5A7
:1041800082F0FF0212F5803FC8BF704700F1C040C7
:10419000D8BF00F00040704700F5000C5FEA4C0CFF
:1041A00048BF7047B0F1C04000F073B890EA010F0B
:1041B0000CEAD11348BF42F48072624538BF6345B0
:1041C00004D280EA010000F00040704710B500F012
:1041D0001AF800BF8900013E00F007B800F009B8E6
:1041E0005FEA410C5FEA1C6C08D080EA010000F035
:1041F00050B85FEA400C5FEA1C6CF6D14FF000400B
:10420000A0F5800070470EF1020E2EF0030E5EF84E
:10421000044B244204D44FEA4102B2F17F4F11D83B
:104220004FEA4003B3F17F4F0CD80ED14FEAD07C58
:10423000B2F17F4F0CEB4C0C0CF1020C08BF4CEBB5
:10424000D17C04E04FF0080C01E04FEAD17C0CEB8C
:104250004C0324FA03F404F00704B4F1040C06D26E
:104260000EEB840CBDE810404CF0010C6047DFE819
:104270000CF0070802024FF00040A0F5800010BDCE
:104280000846420018BFD2F1807288BF00F000409B
:1042900010BDFF2141EAD050C005704790EA010FE0
:1042A00048BF81F000413FF5A8AD421A04D882F022
:1042B0000042A0EB020011444FEAD0524FF07F4C75
:1042C0001CEA410FA2EBD15318BF9CEA026F4AD0FF
:1042D0004FF0004C4CEA00204CEA012121FA03FC8B
:1042E000B0EB0C0C0FD412F0FE0F36D05FEA4C008E
:1042F0001DD5001240EBC25038BF70471CF03F0F75
:1043000018BF70470BE0A2F101025FEA1C2040EBEE
:10431000C25038BF70471CF07F0F18BF7047C3F101
:104320002003994014BF401E20F001007047800810
:104330004FEA122308BF7047B0FA80FCA2EB0C02D0
:10434000CCF1280C60FA0CF093EA122F04BF00EBBA
:10435000C25070474FEAC3707047130A5FEADC101F
:1043600008BF7047F6E79CEA026F04D010EA5C0FC2
:1043700008BF0020704710B5FFF745FF40DFF63E4D
:1043800081F00040704700000000000000000000C5
:1043900000000000040404040404000400000014ED
:1043A0000A0A0000000000000000000014143F147E
:1043B0000A3F0A0A000000041E1505060C14150F1A
:1043C0000400000012150D0A142C2A12000000002F
:1043D000040A0A1E15150936000000020201000039
:1043E000000000000000002010080808080808105D
:1043F0002000000204080808080808040200000061
:104400000004150E0E150400000000000404041F33
:10441000040404000000000000000000000000028E
:10442000020100000000001F00000000000000006A
:10443000000000000000000200000010080808044E
:1044400004020202010000000E1111111111110EDF
:1044500000000000040604040404040E0000000030
:104460000E1111080402011F000000000E11100CB3
:104470001010110E00000000080C0A0A091E08188E
:10448000000000001F01010F1010110E00000000BD
:104490000E09010F1111110E000000001F09080480
:1044A00004040404000000000E11110E1111110E7D
:1044B000000000000E1111111E10120E000000006D
:1044C00000000400000000040000000000000004E0
:1044D000000000040400002010080402040810205A
:1044E0000000000000001F00001F0000000000028C
:1044F0000408102010080402000000000E1111082A
:1045000004040004000000000E111915151D011E01
:104510000000000004040C0A0A1E12330000000010
:104520000F12120E1212120F000000001E110101D4
:104530000101110E000000000F1212121212120FD0
:10454000000000001F120A0E0A02121F00000000E5
:104550001F120A0E0A020207000000001C120101CD
:104560003911120C000000003312121E1212123305
:10457000000000001F0404040404041F00000000E5
:104580003E080808080808090700000037120A0654
:104590000A0A123700000000070202020202223F4C
:1045A000000000001B1B1B1B15151515000000004B
:1045B0003B1216161A1A1217000000000E111111E4
:1045C0001111110E000000000F12120E020202075C
:1045D000000000000E1111111117190E1800000033
:1045E0000F12120E0A121237000000001E110106EF
:1045F0000810110F000000001F1504040404040E2D
:1046000000000000331212121212120C00000000FF
:104610003312120A0A0C0404000000001515150ECE
:104620000A0A0A0A000000001B0A0A04040A0A1BFC
:10463000000000001B0A0A040404040E000000002D
:104640001F0908040402121F0000001C04040404D3
:10465000040404041C0000020202040408080810F8
:104660000000000E08080808080808080E000004EA
:104670000A00000000000000000000000000000030
:1046800000000000003F00040000000000000000E7
:10469000000000000000000C121C123C0000000092
:1046A0000302020E1212120E000000000000001C95
:1046B0001202021C000000001810101C1212123C02
:1046C000000000000000000C121E021C0000000090
:1046D0003804041E0404041E000000000000003C16
:1046E000120C021E221C00000302020E12121237CC
:1046F00000000000040000060404040E0000000096
:104700000800000C08080808080700000302023A25
:104710000A0E123700000000070404040404041FFA
:10472000000000000000000F151515150000000026
:104730000000000F12121237000000000000000CF1
:104740001212120C000000000000000F1212120ED4
:10475000020700000000001C1212121C103800009A
:104760000000001B06020207000000000000001EFF
:10477000020C101E000000000004040E04040418C3
:10478000000000000000001B1212123C000000009C
:1047900000000037120A0C040000000000000015A1
:1047A000150E0A0A000000000000001B0A040A1B84
:1047B0000000000000000037120A0C04040300008F
:1047C0000000001E0804041E000000180808080469
:1047D0000808080818000808080808080808080851
:1047E0000808000604040408040404040600022562
:1047F00018000000000000000000000000000000A1
:104800000000000000000000000000000008080890
:104810000808080800001818000000486C2412005E
:10482000000000000000000000000000002424241C
:104830007F1212127F12121200000000081C2A2A96
:104840000A0C1828282A2A1C08080000002225150E
:1048500015152A585454542200000000000C12125E
:10486000120A76252911916E000000060604030045
:1048700000000000000000000000004020101008B0
:10488000080808080810102040000002040808105A
:1048900010101010100808040200000000000808A2
:1048A0006B1C1C6B080800000000000000000808DA
:1048B00008087F0808080800000000000000000049
:1048C00000000000000006060403000000000000D5
:1048D0000000FE00000000000000000000000000DA
:1048E000000000000000060600000000804040209C
:1048F00020101008080404020200000000182442DE
:1049000042424242424224180000000000080E08C1
:10491000080808080808083E00000000003C424261
:10492000422020100804427E00000000003C424269
:10493000201820404042221C0000000000203028A7
:10494000242422227E20207800000000007E020223
:10495000021A26404042221C0000000000382402B7
:10496000021A26424242241800000000007E222241
:10497000101008080808080800000000003C424227
:10498000422418244242423C000000000018244205
:10499000424264584040241C000000000000000017
:1049A00018180000000018180000000000000000A7
:1049B000000800000000000808040000004020106B
:1049C000080402040810204000000000000000005D
:1049D0007F0000007F0000000000000000020408CB
:1049E000102040201008040200000000003C424259
:1049F000464020101000181800000000001C225A29
:104A0000555555552D42221C00000000000808187D
:104A10001414243C224242E700000000001F22221E
:104A2000221E22424242221F00000000007C42421D
:104A3000010101010142221C00000000001F22426E
:104A4000424242424242221F00000000003F421206
:104A5000121E12120242423F00000000003F4212AA
:104A6000121E12120202020700000000003C222265
:104A7000010101712122221C0000000000E74242D6
:104A800042427E42424242E700000000003E0808E7
:104A9000080808080808083E00000000007C101004
:104AA0001010101010101010110F000000772212BB
:104AB0000A0E0A12122222770000000000070202EA
:104AC000020202020202427F000000000077363636
:104AD00036362A2A2A2A2A6B0000000000E34646BE
:104AE0004A4A52525262624700000000001C2241B2
:104AF000414141414141221C00000000003F42422F
:104B000042423E020202020700000000001C224155
:104B1000414141414D53321C60000000003F424280
:104B2000423E1212222242C700000000007C424294
:104B3000020418204042423E00000000007F490865
:104B4000080808080808081C0000000000E74242A6
:104B5000424242424242423C0000000000E74242E0
:104B6000222424141418080800000000006B49498E
:104B700049495555362222220000000000E7422410
:104B800024181818242442E700000000007722228D
:104B9000141408080808081C00000000007E2120EA
:104BA000101008040442423F00000078080808087A
:104BB0000808080808080808780000000202040431
:104BC00008080810102020204040001E101010106F
:104BD00010101010101010101E00003844000000BB
:104BE00000000000000000000000000000000000C5
:104BF000000000000000000000FF000608000000A8
:104C000000000000000000000000000000000000A4
:104C1000003C4278444242FC0000000000030202D3
:104C2000021A26424242261A00000000000000003C
:104C30000038440202024438000000000060404096
:104C400040784442424264D8000000000000000066
:104C5000003C427E0202423C0000000000F0880856
:104C6000087E08080808083E000000000000000058
:104C7000007C22221C023C42423C00000003020253
:104C8000023A4642424242E700000000000C0C009B
:104C9000000E08080808083E000000000030300040
:104CA0000038202020202020221E000000030202C5
:104CB0000272120A1612227700000000000E080885
:104CC000080808080808083E00000000000000006E
:104CD000007F9292929292B70000000000000000C4
:104CE000003B4642424242E7000000000000000054
:104CF000003C42424242423C0000000000000000F2
:104D0000001B26424242221E020700000000000053
:104D1000007844424242447840E000000000000035
:104D200000774C040404041F000000000000000091
:104D3000007C42023C40423E0000000000000008AF
:104D4000083E0808080808300000000000000000C5
:104D500000634242424262DC0000000000000000AA
:104D600000E74224241408080000000000000000AE
:104D700000EB4949555522220000000000000000C8
:104D8000007624181818246E0000000000000000AF
:104D900000E742242414180808070000000000005F
:104DA000007E22100808447E000000C02020202041
:104DB0002010202020202020C000101010101010E3
:104DC000101010101010101010100006080808081D
:104DD000081008080808080806000C32C200000085
:104DE0000000000000000000000000000C4E000861
:104DF000000000208C00000028010008984E0008E8
:104E00008C000020840600004401000800A24A042F
:104E1000000000000000000001020304060708096A
:104E2000FFFF000000000000000000000000000084
:104E3000000000000000FFFF000000000000000074
:104E40000000000000000000020000000000000060
:104E50000000000000000000000000000000000052
:104E6000020802080208000002080000000000001A
:104E70000000000000000000000000000000000032
:104E8000000000000000000001020304010203040E
:084E90000607080902040608E8
:04000005080000ED02
:00000001FF
